S016000053696D706C654B6579426F6172642E7372656393
S1130000A8470020A19D0000919E0000919E000041
S113001000000000000000000000000000000000DC
S1130020000000000000000000000000919E00009D
S11300300000000000000000919E0000919E00005E
S1130040919E0000919E0000919E0000919E0000F0
S113005051430000919E0000919E0000119A0000FF
S1130060919E0000B94E0000CD4E0000E14E00000C
S1130070F54E0000094F00001D4F0000919E000046
S1130080919E0000919E0000919E0000919E0000B0
S1130090919E0000919E0000919E0000919E0000A0
S11300A0919E0000919E0000919E0000919E000090
S11300B010B5064C2378002B07D1054B002B02D03A
S11300C0044800E000BF0123237010BDD4020020C7
S11300D0000000005CAC000008B5084B002B03D006
S11300E00748084900E000BF07480368002B03D015
S11300F0064B002B00D0984708BDC0460000000006
S11301005CAC0000D80200205CAC000000000000E1
S113011080B500AF0020104B9847021C0F4B1A60AB
S11301200E4B1A680E4B101CFA2291009847031CC0
S11301301A1C0A4B1A60094B1A68094B101CFA2244
S113014091009847031C1A1C064B1A60064B0522A3
S11301501A60BD4680BDC04609640000000000204E
S1130160F9A800000400002010E000E080B584B08D
S113017000AF021CFB1D1A703B1C0F33FA1D1278D2
S1130180D2091A703B1C0E33FA1D127852091A70E8
S11301900D4BBB603B1C0F331B78002B0ED13B1C5B
S11301A00F331B789B001022D219D318083B1A680E
S11301B03B1C0E331B78DB01D31800E00023181C12
S11301C0BD4604B080BDC0460044004180B582B045
S11301D000AF021CFB1D1A70FB1D1B78181C034B7F
S11301E09847031C181CBD4602B080BD6D01000079
S11301F080B584B000AF0A1CFB1D011C1970BB1D27
S11302001A70FB1D1B78181C0D4B9847031CFB60D0
S1130210FB1D1A781F2313400122111C99400B1C4B
S1130220BB60BB1D1B78002B03D0FB68BA689A61C6
S113023002E0FB68BA685A61BD4604B080BDC0469E
S1130240CD01000080B500AF014B9847BD4680BD8D
S11302504977000080B500AF034B98473E2000214A
S1130260024B9847BD4680BD45020000F1010000E5
S113027080B584B000AF3B1D181C144B98473B1D40
S11302800F221A603B1D00225A603B1D01221A7284
S11302903B1D01229A723B1D0222DA723B1D0F2084
S11302A0191C0B4B98470B4B181C0F2100220A4BAF
S11302B098470F200021094B9847094B98473E2047
S11302C00021084B9847BD4604B080BD4D46000050
S11302D0814600005502000065420000C142000052
S11302E0AD120000F101000080B500AF3E200121F5
S11302F0014B9847BD4680BDF101000080B500AFB9
S11303000F200021014B9847BD4680BDC14200002B
S113031080B500AF0F200021014B9847BD4680BD3A
S11303200943000080B500AF3E200021014B9847EF
S1130330BD4680BDF101000080B582B000AF021C53
S1130340FB1D1A70BD4602B080BDC04680B582B0A8
S113035000AF021CFB1D1A70BD4602B080BDC04632
S113036080B500AFBD4680BD80B500AFBD4680BD41
S113037080B500AFBD4680BD80B500AFBD4680BD31
S113038080B500AFBD4680BD80B5AEB000AF021CE5
S1130390BB1D1A803B1CB63300221A703B1CB733BA
S11303A000221A703B1CB53300221A703B1CB43374
S11303B000221A70284B1B780133DAB2264B1A70CC
S11303C0254B1B780E2B44D9234B00221A703B1C5F
S11303D00C33181C0021A822204B9847BB1D1A88F7
S11303E01F4B101CFA22910098470B1C9BB2002B48
S11303F003D13E2000211B4B9847BB1D1A88184B84
S1130400101CFA22910098470B1C9AB2FA235B0045
S11304109A4203D13E200121124B98473B1CB7332B
S113042000221A700EE03B1CB7331A783B1C0C33C5
S113043092000021D1503B1CB7331A783B1CB733D0
S113044001321A703B1CB7331B78292BEBD9064BAE
S11304509847BD462EB080BDF00200203BAB0000A3
S113046081A90000F10100001517000080B582B0D9
S113047000AF021CFB1D1A70BD4602B080BDC04611
S113048080B584B000AF0A1CFB1D011C1970BB1D94
S11304901A700320094B9847031CFB60FB68002279
S11304A01A70FB68FA1D12785A70FB68BA1D12782C
S11304B09A70FB68181CBD4604B080BDB99E00004C
S11304C080B582B000AF78607B685B09181CBD46BC
S11304D002B080BD80B582B000AF78607B68DB017C
S11304E0024A9B18181CBD4602B080BD004400415E
S11304F080B582B000AF78607B68181C054B9847C4
S1130500031C181C044B9847031C181CBD4602B05E
S113051080BDC046C1040000D504000080B582B08F
S113052000AF78607A681F2313400122111C9940A0
S11305300B1C181CBD4602B080BDC04680B500AF80
S1130540BD4680BD80B58AB000AFF860B9607A60FE
S1130550FB68181C2D4B9847031C3B6200237B62ED
S11305600023FB617B6A8022920213437B627A68D8
S11305702023134003D17A681023134004D07B6AEC
S11305808022D20213437B627A688023134004D012
S11305907B6A8022D20313437B627A680F23134061
S11305A01B06FB61BB681B041B0CBB61BB681B0CFB
S11305B07B61BA697B6A1A43FB691343A022D205A3
S11305C01A433B6A9A627A697B6A1A43FB6913434A
S11305D0D02212061A433B6A9A627A682023134097
S11305E006D03B6A5A69BB681A433B6A5A6109E000
S11305F07A681023134005D03B6A9A69BB681A4392
S11306003B6A9A61BD460AB080BDC046D50400006D
S113061090B583B000AF786039607B68181C084BD4
S11306209847041C7B68181C064B9847021C3B68BF
S1130630201C111C1A1C044B9847BD4603B090BDE6
S1130640C10400001D0500004505000080B584B00C
S113065000AF78600A1CFB1C1A707B68181C184BCE
S11306609847031CFB60FB1C1B78012B07D17B689C
S1130670181C144B9847021CFB689A600AE0FB1C88
S11306801B78002B06D17B68181C0E4B9847021C64
S1130690FB685A607B68181C0B4B9847031CF9686D
S11306A04022C9188A181278D2B202210A43D2B25F
S11306B0F8684021C3185B181A70BD4604B080BDA9
S11306C0F10400001D050000C104000090B583B0D2
S11306D000AF78600A1CFB1C1A70FB1C1B78002BF3
S11306E00BD07B68181C0C4B9847041C7B68181CA7
S11306F00A4B9847031CA3610AE07B68181C064B4D
S11307009847041C7B68181C044B9847031C6361BE
S1130710BD4603B090BDC046F10400001D050000B5
S113072090B583B000AF78607B68181C084B98477D
S1130730031C1C6A7B68181C064B9847031C234047
S11307405A1E9341DBB2181CBD4603B090BDC0468F
S1130750F10400001D05000080B500AF014B98476F
S1130760BD4680BD3D05000080B582B000AF786015
S113077039607A683B68101C191C024B9847BD46C7
S113078002B080BD1106000080B582B000AF786071
S11307900A1CFB1C1A707A68FB1C1B78101C191CA1
S11307A0024B9847BD4602B080BDC0464D060000CE
S11307B080B582B000AF78600A1CFB1C1A707A689E
S11307C0FB1C1B78101C191C024B9847BD4602B039
S11307D080BDC046CD06000080B582B000AF786011
S11307E07B68181C034B9847031C181CBD4602B0B9
S11307F080BDC0462107000080B582B000AFFB1D5C
S113080000221A702E200021FD4B9847031C3B60E8
S1130810FB1D1B78FA1D591C11703A68181C111C19
S11308200022F84B98471E200021F54B9847031CE3
S11308303B60FB1D1B78FA1D591C11703A68181C8B
S1130840111C0022EF4B98471F200021EC4B9847C6
S1130850031C3B60FB1D1B78FA1D591C11703A6880
S1130860181C111C0022E74B984720200021E44B60
S11308709847031C3B60FB1D1B78FA1D591C117023
S11308803A68181C111C0022DE4B984721200021D5
S1130890DB4B9847031C3B60FB1D1B78FA1D591C5E
S11308A011703A68181C111C0022D64B984722205C
S11308B00021D34B9847031C3B60FB1D1B78FA1D9A
S11308C0591C11703A68181C111C0022CD4B984712
S11308D029200021CA4B9847031C3B60FB1D1B7851
S11308E0FA1D591C11703A68181C111C0022C54BC2
S11308F0984731200021C24B9847031C3B60FB1DE5
S11309001B78FA1D591C11703A68181C111C00221E
S1130910BC4B984714200021B94B9847031C3B60FB
S1130920FB1D1B78FA1D591C11703A68181C111C08
S11309300022B44B98471A200021B14B9847031C5E
S11309403B60FB1D1B78FA1D591C11703A68181C7A
S1130950111C0022AB4B984708200021A84B984754
S1130960031C3B60FB1D1B78FA1D591C11703A686F
S1130970181C111C0022A34B984715200021A04BE2
S11309809847031C3B60FB1D1B78FA1D591C117012
S11309903A68181C111C00229A4B98471720002112
S11309A0974B9847031C3B60FB1D1B78FA1D591C91
S11309B011703A68181C111C0022924B98470F20A2
S11309C000218F4B9847031C3B60FB1D1B78FA1DCD
S11309D0591C11703A68181C111C0022894B984745
S11309E02B200021864B9847031C3B60FB1D1B7882
S11309F0FA1D591C11703A68181C111C0022814BF5
S1130A009847042000217E4B9847031C3B60FB1D44
S1130A101B78FA1D591C11703A68181C111C00220D
S1130A20784B984716200021754B9847031C3B6070
S1130A30FB1D1B78FA1D591C11703A68181C111CF7
S1130A400022704B9847072000216D4B9847031CE8
S1130A503B60FB1D1B78FA1D591C11703A68181C69
S1130A60111C0022674B984709200021644B9847CA
S1130A70031C3B60FB1D1B78FA1D591C11703A685E
S1130A80181C111C00225F4B98470A2000215C4B64
S1130A909847031C3B60FB1D1B78FA1D591C117001
S1130AA03A68181C111C0022564B9847002002215A
S1130AB0534B9847031C3B60FB1D1B78FA1D591CC4
S1130AC011703A68181C111C00224E4B98471D20C7
S1130AD000214B4B9847031C3B60FB1D1B78FA1D00
S1130AE0591C11703A68181C111C0022454B984778
S1130AF01B200021424B9847031C3B60FB1D1B78C5
S1130B00FA1D591C11703A68181C111C00223D4B27
S1130B109847062000213A4B9847031C3B60FB1D75
S1130B201B78FA1D591C11703A68181C111C0022FC
S1130B30344B984719200021314B9847031C3B60E4
S1130B40FB1D1B78FA1D591C11703A68181C111CE6
S1130B5000222C4B984705200021294B9847031C61
S1130B603B60FB1D1B78FA1D591C11703A68181C58
S1130B70111C0022234B98470F200021204B98473B
S1130B80031C3B60FB1D1B78FA1D591C11703A684D
S1130B90181C111C00221B4B984700200821184BDD
S1130BA09847031C3B60FB1D1B78FA1D591C1170F0
S1130BB03A68181C111C0022124B9847352000215A
S1130BC00F4B9847031C3B60FB1D1B78FA1D591CF7
S1130BD011703A68181C111C00220A4B98473120E6
S1130BE00021074B9847031C3B60FB1D1B78FA1D33
S1130BF0591C11703A68181C111C002204E0C046EC
S1130C008104000051160000FE4B9847502000213B
S1130C10FD4B9847031C3B60FB1D1B78FA1D591CB8
S1130C2011703A68181C111C0022F64B98474F208B
S1130C300021F54B9847031C3B60FB1D1B78FA1DF4
S1130C40591C11703A68181C111C0022ED4B98476E
S1130C502A200021EC4B9847031C3B60FB1D1B78AA
S1130C60FA1D591C11703A68181C111C0022E54B1E
S1130C7098474C200021E44B9847031C3B60FB1D24
S1130C801B78FA1D591C11703A68181C111C00229B
S1130C90DC4B98474D200021DB4B9847031C3B60FD
S1130CA0FB1D1B78FA1D591C11703A68181C111C85
S1130CB00022D44B98474A200021D34B9847031C69
S1130CC03B60FB1D1B78FA1D591C11703A68181CF7
S1130CD0111C0022CB4B984700200421CA4B984793
S1130CE0031C3B60FB1D1B78FA1D591C11703A68EC
S1130CF0181C111C0022C34B984700200121C24B31
S1130D009847031C3B60FB1D1B78FA1D591C11708E
S1130D103A68181C111C0022BA4B98472D20002158
S1130D20B94B9847031C3B60FB1D1B78FA1D591CEB
S1130D3011703A68181C111C0022B24B98472720E6
S1130D400021B14B9847031C3B60FB1D1B78FA1D27
S1130D50591C11703A68181C111C0022A94B9847A1
S1130D6026200021A84B9847031C3B60FB1D1B78E1
S1130D70FA1D591C11703A68181C111C0022A14B51
S1130D80984725200021A04B9847031C3B60FB1D7E
S1130D901B78FA1D591C11703A68181C111C00228A
S1130DA0984B984724200021974B9847031C3B609D
S1130DB0FB1D1B78FA1D591C11703A68181C111C74
S1130DC00022904B9847232000218F4B9847031C07
S1130DD03B60FB1D1B78FA1D591C11703A68181CE6
S1130DE0111C0022874B98470F200021864B9847FF
S1130DF0031C3B60FB1D1B78FA1D591C11703A68DB
S1130E00181C111C00227F4B9847302000217E4B78
S1130E109847031C3B60FB1D1B78FA1D591C11707D
S1130E203A68181C111C0022764B984713200021A5
S1130E30754B9847031C3B60FB1D1B78FA1D591C1E
S1130E4011703A68181C111C00226E4B984712202E
S1130E5000216D4B9847031C3B60FB1D1B78FA1D5A
S1130E60591C11703A68181C111C0022654B9847D4
S1130E700C200021644B9847031C3B60FB1D1B782E
S1130E80FA1D591C11703A68181C111C00225D4B84
S1130E909847182000215C4B9847031C3B60FB1DBE
S1130EA01B78FA1D591C11703A68181C111C002279
S1130EB0544B98471C200021534B9847031C3B601C
S1130EC0FB1D1B78FA1D591C11703A68181C111C63
S1130ED000224C4B98472F2000214B4B9847031C72
S1130EE03B60FB1D1B78FA1D591C11703A68181CD5
S1130EF0111C0022434B984734200021424B984751
S1130F00031C3B60FB1D1B78FA1D591C11703A68C9
S1130F10181C111C00223B4B9847332000213A4BEC
S1130F209847031C3B60FB1D1B78FA1D591C11706C
S1130F303A68181C111C0022324B98470F200021DC
S1130F40314B9847031C3B60FB1D1B78FA1D591C51
S1130F5011703A68181C111C00222A4B98470E2065
S1130F600021294B9847031C3B60FB1D1B78FA1D8D
S1130F70591C11703A68181C111C0022214B984707
S1130F800D200021204B9847031C3B60FB1D1B7860
S1130F90FA1D591C11703A68181C111C0022194BB7
S1130FA098470B200021184B9847031C3B60FB1DFE
S1130FB01B78FA1D591C11703A68181C111C002268
S1130FC0104B9847002020210F4B9847031C3B608F
S1130FD0FB1D1B78FA1D591C11703A68181C111C52
S1130FE00022084B984738200021074B9847031CE0
S1130FF03B60FB1D1B78FA1D591C11703A68181CC4
S113100004E0C0465116000081040000111C0022B7
S11310108A4B984737200021894B9847031C3B6033
S1131020FB1D1B78FA1D591C11703A68181C111C01
S11310300022824B984736200021814B9847031C9D
S11310403B60FB1D1B78FA1D591C11703A68181C73
S1131050111C0022794B984710200021784B9847A7
S1131060031C3B60FB1D1B78FA1D591C11703A6868
S1131070181C111C0022714B984711200021704B41
S11310809847031C3B60FB1D1B78FA1D591C11700B
S11310903A68181C111C0022684B98470F20002145
S11310A0674B9847031C3B60FB1D1B78FA1D591CBA
S11310B011703A68181C111C0022604B98470020DC
S11310C080215F4B9847031C3B60FB1D1B78FA1D76
S11310D0591C11703A68181C111C0022574B984770
S11310E04F200021564B9847031C3B60FB1D1B7887
S11310F0FA1D591C11703A68181C111C00224F4B20
S11311009847522000214E4B9847031C3B60FB1D1F
S11311101B78FA1D591C11703A68181C111C002206
S1131120464B984751200021454B9847031C3B6090
S1131130FB1D1B78FA1D591C11703A68181C111CF0
S113114000223E4B9847502000213D4B9847031CFA
S11311503B60FB1D1B78FA1D591C11703A68181C62
S1131160111C0022354B98472C200021344B984702
S1131170031C3B60FB1D1B78FA1D591C11703A6857
S1131180181C111C00222D4B9847282000212C4BA1
S11311909847031C3B60FB1D1B78FA1D591C1170FA
S11311A03A68181C111C0022244B98474E20002139
S11311B0234B9847031C3B60FB1D1B78FA1D591CED
S11311C011703A68181C111C00221C4B98474B20C4
S11311D000211B4B9847031C3B60FB1D1B78FA1D29
S11311E0591C11703A68181C111C0022134B9847A3
S11311F000204021124B9847031C3B60FB1D1B78C9
S1131200FA1D591C11703A68181C111C00220B4B52
S11312109847002010210A4B9847031C3B60FB1D94
S11312201B78FA1D591C11703A68181C111C0022F5
S1131230024B9847BD4602B080BDC046511600001F
S11312408104000080B582B000AF154A3D2300211F
S1131250D154134A3E230021D154114A3C23002186
S1131260D154FB1D00221A700AE0FB1D1A780C4BA6
S113127092000021D150FB1D1A78FB1D01321A7017
S1131280FB1D1B780E2BF0D90020064B9847031C3E
S11312903B603B68181C044B9847BD4602B080BDB8
S11312A0740900206D150000D115000080B586B0CA
S11312B000AF3B1C153300221A703B1C173300226D
S11312C01A703B1C163300221A709C4B98479C4B97
S11312D098479C4B98479C4B2F221A609A4B2E227E
S11312E05A60994B2D229A60974B2C22DA60964BC8
S11312F02B221A61944B2A225A61934B26229A611B
S1131300914B2522DA61904B24221A628E4B2322C0
S11313105A628D4B22229A628B4B2122DA628A4BCB
S113132020221A63894B14221A60884B13225A60B4
S1131330864B12229A60854B0B22DA60834B102273
S11313401A61824B11225A61804B0A229A617F4BA7
S11313502922DA617D4B28221A627C4B07225A62C9
S11313607A4B06229A62794B0522DA62774B042281
S11313701A633B1C143300221A703B1C17330022DF
S11313801A70C046724B9847724B98473B1C1733F0
S113139000221A70C8E03B1C17331B787422534395
S11313A01A1C8832684BD3183B613B1C17331B78DB
S11313B0742253431A1C8832644BD318FB603B1CC1
S11313C017331A78604B9200D2583B691A603B1C61
S11313D017331A785D4B9200D258FB681A603B1C95
S11313E0163300221A707AE03B1C16331B781B015B
S11313F03A69D3180433BB603B1C16331B781B01BA
S1131400FA68D31804337B603B1C16331A784E4BAE
S113141006329200D258BB681A60BB6800225A7127
S1131420BB6800221A713B1C17331A783B1C163315
S113143018784949131CDB009B1A1B185A5CBB68BB
S11314401A73BB6800229A71BB680022DA71BB6808
S113145000229A603B1C16331A783C4B06329200E9
S1131460D2587B681A607B6800225A717B6800221C
S11314701A713B1C17331A783B1C163318783749FA
S1131480131CDB009B1A1B185A5C7B681A737B685D
S113149000229A717B680022DA717B6800229A60CC
S11314A0BB681B68181C00212D4B9847BB681B6840
S11314B0181C20212B4B98477B681B68181C0021A3
S11314C0274B98477B681B68181C2021254B98479D
S11314D03B1C16331A783B1C163301321A703B1C22
S11314E016331B78062B00D87EE73B691B68181C53
S11314F001211B4B98473B691B68181C00211A4BA0
S11315009847FB681B68181C0121154B9847FB681A
S11315101B68181C0021144B98473B1C17331A787E
S11315203B1C173301321A703B1C17331B78052BF5
S113153000D830E7BD4606B080BDC046999E000085
S113154045120000F9070000F402002034060020D0
S11315505907000011010000C4000020F000002021
S11315608907000069070000B107000080B584B056
S113157000AF021CFB1D1A709A235B00181C134B4E
S11315809847031CBB60BA68F91D98235B0009786F
S1131590D1543B1C0F3300221A700DE03B1C0F3357
S11315A01A78BB6892000021D1503B1C0F331A7883
S11315B03B1C0F3301321A703B1C0F331B784B2B2F
S11315C0ECD9BB68181CBD4604B080BDB99E0000B0
S11315D080B584B000AF78603B1C0F3300221A70D2
S11315E017E03B1C0F331A78184B9200D2589823FB
S11315F05B00D25C796898235B00CB5C9A4201D192
S113160000231EE03B1C0F331A783B1C0F330132BE
S11316101A700E4A3C23D35C3A1C0F3212789A4259
S1131620DFD30A4A3C23D35C1A1C084B9200796826
S1131630D150064A3C23D35C0133D9B2034A3C233C
S1131640D154181CBD4604B080BDC04674090020A6
S113165080B584B000AF3960FB1D011C1970BB1D3F
S11316601A703B1C0F3300221A7023E03B1C0F330B
S11316701A78174B9200D25898235B00D35CBA1D9A
S113168012789A420FD13B1C0F331A78104B9200F8
S1131690D358FA1D11783A68081C111C1A1C0D4BFA
S11316A09847031C0FE03B1C0F331A783B1C0F3385
S11316B001321A70064A3C23D35C3A1C0F3212786A
S11316C09A42D3D30023181CBD4604B080BDC04643
S11316D074090020D916000080B584B000AFB96049
S11316E07A603B1C0F33021C1A70BB68002B02D0BB
S11316F07B68002B01D1002307E03B1C0F331A78D1
S11317007B689200B968D1500123181CBD4604B00F
S113171080BDC04680B586B000AF3B1C17330022A5
S11317201A703B1C163300221A703B1C173300221C
S11317301A7032E13B1C17331B78742253431A1C72
S113174088329B4BD3183B613B1C17331B787422A4
S113175053431A1C8832974BD318FB603B691B68B0
S1131760181C0121944B9847FB681B68181C012125
S1131770914B98473B1C163300221A70F4E03B1C33
S113178016331B781B013A69D3180433BB603B1C26
S113179016331B781B01FA68D31804337B60BB68CB
S11317A05A79BB681A71BB681B68181C834B98472D
S11317B0031C1A1CBB685A71BB685B79002B23D0CD
S11317C0BB681B79002B1FD0BB689B685A1CBB6885
S11317D09A60BB689B68012B11D1BB6801229A7186
S11317E0774B1B78052B0ED8BB68181C754B984794
S11317F0734B1B780133DAB2714B1A703EE0BB684D
S113180000229A713AE039E0BB685B7901225340C7
S1131810DBB2002B2CD0BB681B7901225340DBB216
S1131820002B25D0BB689B68002B19D0BB68DB79E3
S113183001225340DBB2002B12D0BB680122DA71C3
S1131840BB68181C604B98475D4B1B78002B06D077
S11318505B4B1B78013BDAB2594B1A7007E006E088
S1131860BB680022DA71BB6800229A6006E005E0DA
S1131870BB680022DA71BB6800229A717B685A79CE
S11318807B681A717B681B68181C4C4B9847031CB7
S11318901A1C7B685A717B685B79002B23D07B68A8
S11318A01B79002B1FD07B689B685A1C7B689A604D
S11318B07B689B68012B11D17B6801229A71404B94
S11318C01B78052B0ED87B68181C3E4B98473C4B65
S11318D01B780133DAB23A4B1A703EE07B6800227F
S11318E09A713AE039E07B685B7901225340DBB2BC
S11318F0002B2CD07B681B7901225340DBB2002BD8
S113190025D07B689B68002B19D07B68DB7901228A
S11319105340DBB2002B12D07B680122DA717B6862
S1131920181C294B9847264B1B78002B06D0244BB8
S11319301B78013BDAB2224B1A7007E006E07B68A1
S11319400022DA717B6800229A6006E005E07B6879
S11319500022DA717B6800229A713B1C16331A78D4
S11319603B1C163301321A703B1C16331B78062BB2
S113197000D804E73B691B68181C00210E4B9847EC
S1131980FB681B68181C00210B4B98473B1C173342
S11319901A783B1C173301321A703B1C17331B781F
S11319A0052B00D8C6E60023181CBD4606B080BD32
S11319B0F402002034060020B1070000D90700001B
S11319C0B4090020CD190000ED1A000080B58AB0DA
S11319D000AF78603B1C273300221A70404A3D2335
S11319E0D35C1A1C3E4B9200D3583B623B1C1F3302
S11319F07A68127B1A703B1C1F331A783B6A920078
S1131A00D358BB61BB69002B00D165E03B1C173385
S1131A10BA6912781A703B1C17331B78002B0CD14F
S1131A20BB693B613B699B78181C2E4B98473B690B
S1131A305B78181C2C4B98474EE03B1C17331B78E3
S1131A40042B49D1BB69FB60FB685B78032B14D181
S1131A50234A3D23D35C0133D9B2214A3D23D154D7
S1131A601F4A3D23D25C1E493C23CB5C9A4233D1AE
S1131A701B4A3D230021D1542EE0FB685B78042BE4
S1131A8016D1174A3D23D35C002B08D1144A3C23BA
S1131A90D35C013BD9B2124A3D23D1541CE0104A15
S1131AA03D23D35C013BD9B20D4A3D23D15413E00D
S1131AB03B1C273300221A7006E03B1C27331A789C
S1131AC03B1C273301321A70054A3C23D35C3A1C71
S1131AD0273212789A42F0D3BD460AB080BDC04680
S1131AE074090020492E00007D2F000080B588B0C5
S1131AF000AF7860184A3D23D35C1A1C164B920041
S1131B00D358FB613B1C1B337A68127B1A703B1C55
S1131B101B331A78FB699200D3587B617B69002BD5
S1131B2000D115E03B1C13337A6912781A703B1C00
S1131B3013331B78002B0BD17B69FB60FB689B780C
S1131B40181C064B9847FB685B78181C044B984795
S1131B50BD4608B080BDC04674090020F12D0000C8
S1131B609D2E000080B582B000AFEFF310833B6080
S1131B703B685A425341DBB27B6072B6BFF35F8F5E
S1131B80034B00221A707B68181CBD4602B080BD4E
S1131B905402002080B582B000AF78607B685A1E82
S1131BA09341DBB2181CBD4602B080BD80B582B043
S1131BB000AF78607B68181C064B9847031C002B09
S1131BC005D0054B01221A70BFF35F8F62B6BD4684
S1131BD002B080BD951B00005402002090B583B074
S1131BE000AFBB1D00221A70594B00221A70BB1D96
S1131BF01A78584B52000021D152BB1D1A7856490D
S1131C00131C9B009B185B00A1225A54BB1D1A781D
S1131C105149131C9B009B185B00CB1820225A705F
S1131C20BB1D1A784C49131C9B009B185B00CB18F6
S1131C3000225A80BB1D1B78002B03D1FB1D002200
S1131C401A7003E0FB1D00221A70C046BB1D1A78EF
S1131C50FB1D1B7899B24048131C9B009B185B002A
S1131C60C3180A1C9A80BB1D1A783B49131C9B009D
S1131C709B185B00CB180222DA80BB1D1A78364908
S1131C80131C9B009B185B00CB18083300221A809E
S1131C90BB1D1978314A0B1CDB005B1A985C0021D0
S1131CA001409954D1184C78002020403E246442CD
S1131CB020434870D1188C78002020400124204310
S1131CC08870D318D97800220A40DA70BB1D1A78BC
S1131CD02249131CDB009B1ACB1800221A71BB1D6E
S1131CE01A781E49131CDB009B1ACB1800225A7168
S1131CF0BB1D1A781949131CDB009B1ACB18082248
S1131D009A71BB1D1A78131CDB009B1A134A9B188B
S1131D10BA1D1278101C191C114B9847BB1D1B7857
S1131D20181C104B9847031C01225340DBB2002BB4
S1131D3001D0002307E0064B1B78DBB20133DAB293
S1131D40034B1A700123181CBD4603B090BDC04656
S1131D50D4090020C4090020C8090020B8090020C3
S1131D6021A70000EDA2000080B582B000AFFB1DEA
S1131D7000221A70304B00221A70FB1D1B782F4A68
S1131D800021D154FB1D1B782D4A0021D154FB1D89
S1131D901B782C4A0021D154FB1D1A782A4B92003F
S1131DA00021D152FB1D1B78274A9B00D318023314
S1131DB000221A80FB1D1A78244B52000021D152B4
S1131DC0FB1D1B78181C224B9847FB1D1B78214ACE
S1131DD00021D154FB1D1B781F4A0021D154FB1D47
S1131DE01A781E4B92000021D152FB1D1A781C4B0D
S1131DF052000021D152FB1D1B78181C194B984727
S1131E00031C01225340DBB2002B01D000230FE05E
S1131E10094B1B78DBB20133DAB2074B1A70064B5D
S1131E201B78DBB2012B02D10F4B01221A70012364
S1131E30181CBD4602B080BDD5090020F40E002058
S1131E40F80E0020EC0E0020E80E0020F00E00201A
S1131E507D250000640C00205C0C0020580C002040
S1131E60600C0020A5220000D609002080B500AF38
S1131E70044B1B78DBB2013BDAB2024B1A70BD464D
S1131E8080BDC046D409002080B582B000AF0B4BA2
S1131E901B78DBB2013BDAB2084B1A70FB1D074A10
S1131EA012781A70FB1D1B78181C054B9847054BBC
S1131EB000221A70BD4602B080BDC046D50900207C
S1131EC01DA30000D609002090B583B000AFFC1D0F
S1131ED0344B9847031C2370334B1B78DBB25BB243
S1131EE0002B1EDA304B1B781A1C60231340202B66
S1131EF017D12D4B5B78212B13D12B4BDB88072B70
S1131F0001D0002349E0FB1D1A78131CDB009B1A47
S1131F10264A9A18244B9A60234B07229A8101235C
S1131F203BE0214B1B78DBB25BB2002B34DB1E4B56
S1131F301B781A1C60231340202B2DD11A4B5B787D
S1131F40202B02D0222B17D026E0174BDB88072B3F
S1131F5001D0002321E0144B154A1A61FB1D1A78A5
S1131F60131CDB009B1A114A9A180F4B9A600E4BF4
S1131F7007229A81012310E00B4B5B881A1C012372
S1131F8013405A1E9341DBB2FA1D1278101C191C1F
S1131F90084B9847012300E00023181CBD4603B0FA
S1131FA090BDC046ED1F0000DC3A0020B8090020B7
S1131FB02120000049A3000080B500AF0023181CB5
S1131FC0BD4680BD80B500AF0023181CBD4680BD52
S1131FD080B500AF034B1B78181C034B9847BD46D4
S1131FE080BDC046FC0E00207D25000080B582B077
S1131FF000AF0A4B9B881A1CFF23134003D1FB1D1F
S113200000221A7003E0FB1D00221A70C046FB1D5B
S11320101B78181CBD4602B080BDC046DC3A0020C7
S113202090B583B000AFFC1D094B9847031C237087
S1132030FB1D1A78131CDB009B1A064A9B18FA1D19
S11320401278101C191C044B9847BD4603B090BD70
S1132050ED1F0000B809002021A7000080B584B05E
S113206000AFFB1D1870BB1D19703B1D1A803B1C73
S11320700E3300221A70264B9847031CBB60BB1D0D
S11320801B78002B11D03B1C0E331A783B1C0E33EB
S11320901978204B4900CB5A99B23B1D1B880B433E
S11320A099B21C4B5200D15212E03B1C0E331A78E9
S11320B03B1C0E331978174B4900CB5A9BB2391D80
S11320C00988C94389B20B4099B2124B5200D152CC
S11320D0BB68181C104B98473B1C0E331B78002B15
S11320E004D13B1C0F3387221A7004E03B1C0F33CE
S11320F087221A70C0463B1C0E331A783B1C0F33E0
S11321001B78101C191C054B9847BD4604B080BDB4
S1132110651B0000C4090020AD1B00002121000044
S1132120B0B586B002AF0A1CFB1D011C1970BB1DA3
S11321301A703B1C0F3300221A703B1C0F331B78A0
S1132140254AD35C01225340DBB2002B40D03B1C18
S11321500F331A78214B5200D35A99B23B1C0F33D8
S11321601A781F48131C9B009B185B00C318083384
S11321701B8899422CD03B1C0F331A783B1C0F331D
S11321801978164B4900CB5A99B21548131C9B0079
S11321909B185B00C31808330A1C1A803B1C0F33BE
S11321A01C783B1C0F331A78131C9B009B185B0094
S11321B00B4A9B18BA1D12780A490091101C002181
S11321C01A1C0A23084DA847031C1A1C024B1A5553
S11321D0BD4604B0B0BDC046C0090020C4090020FB
S11321E0C8090020ED2100002574000080B584B0EA
S11321F000AF3960FB1D011C1970BB1D1A70BB1D9B
S11322001B78872B04D13B1C0F3300221A7004E087
S11322103B1C0F3300221A70C0463B1C0F331B7843
S11322201C4A0021D1543B1C0F331A783B1C0F333A
S11322301978194B4900CB5A9BB27C218B4399B234
S1132240154B5200D1523B1C0F331A783B1C0F33F1
S1132250197812480B1C9B005B185B00C3180833E9
S11322601B887C218B4399B20C48131C9B009B1840
S11322705B00C31808330A1C1A803B1C0F331A78FE
S1132280BB1D1B78101C191C054B9847BD4604B098
S113229080BDC046C0090020C4090020C809002030
S11322A02121000090B589B002AF021CFB1D1A70F9
S11322B03B1C163300221A70454B9847031C3B61A4
S11322C03B1C16331A783B1C0F3342498A5C1A7044
S11322D03B1C16331B78404AD35CDBB2002B13D172
S11322E03B1C16331A783D4B5200D35A9AB23B1C0E
S11322F0163318783B1C0F331978394B40004118BA
S11323004900CB5A9A4205D23B69181C354B984771
S1132310002358E03B1C16331A78304B520000213E
S1132320D1523B1C16331B783A1C0F32127851429F
S11323304A41D2B2111C274AD1543B1C16331B7894
S1132340254A0121D1543B69181C264B98473B1C54
S113235016331B78181C244B9847031C002B05D0FC
S11323603B1C16331B78181C204B98473B1C163318
S11323701B78002B04D13B1C173305221A7004E090
S11323803B1C173305221A70C0463B1C16331978C0
S11323903B1C0F331B781A1C9200D21893011A1C91
S11323A00B1C9B005B18DB01D218114BD2183B1C91
S11323B017331978A0235B000E480090081C0121F4
S11323C00D4CA047031C181CBD4607B090BDC04669
S11323D0651B00005C0C0020640C0020600C0020D5
S11323E0580C0020AD1B000065280000CDA600009D
S11323F0D8090020FD2300002574000090B587B0A3
S113240002AF3960FB1D011C1970BB1D1A70BB1D86
S11324101B78052B04D13B1C0F3300221A7004E0F7
S11324203B1C0F3300221A70C046FB1D1B78002B87
S113243000D044E03B1C0F331B78224AD35CDBB250
S11324405A425341DAB23B1C0E331A703B68002BDC
S11324501CD13B1C0F3319783B1C0E331B781A1C00
S11324609200D21893011A1C0B1C9B005B18DB0111
S1132470D218154BD218BB1D1978A0235B00134842
S11324800090081C0121124CA04718E03B1C0F339C
S113249018783B1C0E331A783B6899B20D4B4000F8
S11324A082185200D1523B1C0F331B780A4A002178
S11324B0D1543B1C0F331B78181C084B9847BD465E
S11324C005B090BD5C0C0020D8090020FD2300005D
S11324D025740000580C0020640C0020A522000084
S11324E080B584B000AF3960FB1D011C1970BB1DA1
S11324F01A70BB1D1B78862B04D13B1C0F330022A2
S11325001A7004E03B1C0F3300221A70C046FB1DF6
S11325101B78002B00D024E03B1C0F3319783B1CA4
S11325200F331B78104AD35CDBB25A425341DBB2FF
S11325301A1C0E4B49008A1852000021D1523B1C30
S11325400F331B780A4A0021D1543B1C0F331B78EC
S1132550084A0021D1543B1C0F331B78181C064B2E
S11325609847BD4604B080BDEC0E0020E80E002064
S1132570F80E0020F40E00207D25000090B589B0EF
S113258002AF021CFB1D1A703B1C153300221A708B
S11325903B1C15331B787E4AD35CDBB2002B00D086
S11325A0F3E07C4B9847031C002B0BD03B1C1533EA
S11325B01A78794B5200D45A784B9847031C9C42A2
S11325C00CD1E2E03B1C15331A78734B5200D45AF9
S11325D0734B9847031C9C4200D1D6E0714B98473B
S11325E0031C3B613B1C15331A783B1C17336E49A3
S11325F08A5C1A703B1C153319783B1C17331A7804
S11326006A4B49008A185200D35A002B20D1684BD8
S11326101B8801339AB2664B1A805E4B9847031CA1
S113262001225340DBB2002B03D0614B1B88632B88
S113263009D9584B9847031C002B09D05C4B1A88C6
S11326405C4B9A4204D83B69181C5B4B98479CE04E
S1132650574B00221A803B1C15331B78574AD35C16
S1132660DBB201225340DBB2002B0CD03B1C1533F0
S11326701B783A1C1732127851424A41D2B2111CCB
S1132680494AD15408E03B1C17331B785A42534142
S1132690DAB23B1C17331A703B1C15331B783C4AC7
S11326A00121D1543B69181C434B98473B1C1533FB
S11326B019783B1C17331A783C4B49008A1852008E
S11326C0D25A3B1C0F33413AFF3A511E8A411A70C9
S11326D03B1C0F331B78002B1AD02E4B9847031C3E
S11326E0002B0AD03B1C15331C782C4B9847031C39
S11326F0191C294B6200D15211E03B1C15331C7884
S1132700274B9847031C191C234B6200D15206E047
S11327103B1C15331A78204B52000021D1523B1C2C
S113272015331B78002B04D13B1C163386221A70F8
S113273004E03B1C163386221A70C0463B1C15333A
S113274019783B1C17331B781A1C9200D21893017A
S11327501A1C0B1C9B005B18DB01D218184BD218F7
S11327603B1C153318783B1C173319780F4B40006A
S113277041184900CB5A391C16310878391C0F31DD
S11327800978104C0094104CA047BD4607B090BD8A
S1132790F40E00207D700000F00E0020A5700000F3
S11327A089700000651B0000EC0E0020E80E00207C
S11327B0FE0E00201F030000AD1B0000F80E0020D9
S11327C0680C0020E12400002574000080B500AFEF
S11327D0002001214022024B9847BD4680BDC046DF
S11327E05D20000080B586B000AF021CFB1D1A708E
S11327F03B1C173300221A70154B9847031C3B618E
S11328003B1C173319783B1C0E33124A49008A5A71
S11328101A803B1C173319783B1C17331B780E4A5C
S1132820D35CDBB21A1C0D4B49008A185200D35AF0
S11328301A1C3B1C0E331B88D31ABB603B69181C43
S1132840074B9847BB68181CBD4606B080BDC04600
S1132850651B0000600C00205C0C0020580C00205C
S1132860AD1B000080B582B000AF021CFB1D1A70C6
S1132870FB1D1B78181C054B9847031C5A1E9341DB
S1132880DBB2181CBD4602B080BDC046E52700007F
S113289080B500AF0020034B9847031C181CBD46AD
S11328A080BDC0466528000090B587B000AF021C0B
S11328B0FB1D1A7000237B613B1C123300221A702B
S11328C03B1C12331A784149131CDB009B1ACB18AA
S11328D09A793B1C1333093A51424A411A703C4BD2
S11328E09847031CFB603B1C123319783B1C0A33CA
S11328F0384A49008A5A1A803B1C12331A783B1C06
S1132900093335498A5C1A70FB68181C334B9847A5
S1132910C0463B1C123319783B1C09331A78304BE0
S113292049008A185200D35A3A1C0A3212889A4231
S113293010D32C4B1B78DBB201225340DBB2002BAB
S113294001D000233EE03B1C13333A1C13321278AF
S11329501A70C4E73B1C123319783B1C09331B78EB
S11329603A1C0A321088204C1A1C9200D218930187
S11329701A1C0B1C9B005B18DB01D318E3181B5CAF
S11329807A6913437B613B1C12331A783B1C0A336C
S11329901B88013399B20F4B5200D1523B1C1233A6
S11329A01B78181C114B98473B1C13331B78002BC6
S11329B007D03B1C133300221A707B691B027B6116
S11329C08DE77B69181CBD4607B090BDB80900208F
S11329D0651B0000600C00205C0C0020AD1B000097
S11329E0580C0020D6090020D8090020A522000098
S11329F080B500AF0020034B9847031C181CBD464C
S1132A0080BDC046A928000080B588B000AF021C74
S1132A10FB1D1A703B1C1B3300221A70334B984762
S1132A20031C7B613B1C1B331A783B1C133330495A
S1132A308A5C1A703B1C1B3319783B1C13331A78BD
S1132A402C4B49008A185200D35AFB613B1C1B33A0
S1132A5019783B1C13331B785A425341DBB21A1CBE
S1132A60244B49008A185200D35AFB60FA69A02308
S1132A705B009A422CD13B1C1B331B781E4AD35C4F
S1132A80DBB201225340DBB2002B21D03B1C1B33B1
S1132A901B781A4AD35CDBB201225340DBB2002B11
S1132AA016D03B1C1B331B78144A0121D1543B1C08
S1132AB01B331B783A1C1332127851424A41D2B26A
S1132AC0111C0B4AD1540023FB61A0235B00FB6063
S1132AD0FB69A0225200D31ABB607B69181C084B07
S1132AE09847BB68181CBD4608B080BD651B000034
S1132AF0EC0E0020E80E0020F40E0020F80E00205A
S1132B00AD1B000080B582B000AF021CFB1D1A7023
S1132B10FB1D1B78181C054B9847031C5A1E934138
S1132B20DBB2181CBD4602B080BDC046092A0000B5
S1132B3080B500AF0020034B9847031C181CBD460A
S1132B4080BDC046052B0000F0B587B000AF021C65
S1132B503960FB1D1A703B1C163300221A703B1C93
S1132B6016331A783A49131CDB009B1ACB189A794E
S1132B703B1C1733093A51424A411A703B1C163325
S1132B801B78181C334B9847031C01225340DBB2BB
S1132B90002B10D0304B1B78DBB201225340DBB248
S1132BA0002B01D000234EE03B1C17333A1C173294
S1132BB012781A70E2E7294B9847031C3B613B1CCF
S1132BC016331A783B1C0F3325498A5C1A703B1C58
S1132BD0163319783B1C0F331B783A1C16321478C1
S1132BE03A1C0F3210781F4A65002D186D00AA5A3E
S1132BF0551CAEB21B4D640020184000341C4453D5
S1132C00101C3A68D4B2184D1A1C9200D2189301C1
S1132C101A1C0B1C9B005B18DB01D318EB18221C3D
S1132C201A543B69181C114B98473B1C17331B78EB
S1132C30002B07D03B1C173300221A703B681B1271
S1132C403B609BE70123181CBD4607B0F0BDC0469E
S1132C50B8090020052B0000D6090020651B0000E0
S1132C60EC0E0020E80E0020680C0020AD1B0000D4
S1132C7080B582B000AF78607B680020191C034BDC
S1132C809847031C181CBD4602B080BD492B0000A8
S1132C9080B582B000AFEFF310833B603B685A42CB
S1132CA05341DBB27B6072B6BFF35F8F034B0022EC
S1132CB01A707B68181CBD4602B080BD5402002007
S1132CC080B582B000AF78607B685A1E9341DBB256
S1132CD0181CBD4602B080BD80B582B000AF7860DC
S1132CE07B68181C064B9847031C002B05D0054B2A
S1132CF001221A70BFF35F8F62B6BD4602B080BD79
S1132D00C12C00005402002080B500AF0B4B002200
S1132D101A700B4B00221A700A4B00221A700A4BCD
S1132D20181C00210822094B9847094B00221A70ED
S1132D30084B9847031C181CBD4680BD000F00209B
S1132D40040F0020180F0020100F00203BAB0000E0
S1132D500C0F0020C1A2000080B500AF014B9847C2
S1132D60BD4680BDD9A2000098B500AF044805490E
S1132D70054A064B064CA047031C181CBD4698BDCB
S1132D80000F0020040F002058010020A12D000096
S1132D908D31000080B500AF0023181CBD4680BDF6
S1132DA080B500AF0F4B5B881B0A9BB2022B15D179
S1132DB00C4B5A88FF2313409BB2002B0ED1094BB6
S1132DC0DB88012B0AD1074B074A9A60054B074A57
S1132DD01A61044B01229A81012300E00023181C8C
S1132DE0BD4680BDDC3A0020080F0020CD30000035
S1132DF080B584B000AF021CFB1D1A700D4B9847C0
S1132E00031CFB600C4B1B78FA1D1278D243D2B220
S1132E101340DAB2084B1A70084B01221A70084B9F
S1132E209847FB68181C074B98470123181CBD469C
S1132E3004B080BD912C0000100F00200C0F002066
S1132E4035300000D92C000080B584B000AF021CDE
S1132E50FB1D1A700C4B9847031CFB600B4B1A7834
S1132E60FB1D1B781343DAB2084B1A70084B01227E
S1132E701A70084B9847FB68181C074B98470123A6
S1132E80181CBD4604B080BD912C0000100F00201A
S1132E900C0F002035300000D92C000080B584B020
S1132EA000AF021CFB1D1A702F4B9847031CBB601C
S1132EB03B1C0F3302221A701DE03B1C0F331B789E
S1132EC02A4AD35C002B05D1BB68181C284B9847B1
S1132ED0012345E03B1C0F331B78244AD35CFA1DC5
S1132EE012789A4200D10BE03B1C0F331A783B1C3A
S1132EF00F3301321A703B1C0F331B78072BDCD9BC
S1132F003B1C0F331B78082B05D1BB68181C184BCE
S1132F109847012324E011E03B1C0F331B783A1C33
S1132F200F32127801321149895C104AD1543B1C8A
S1132F300F331A783B1C0F3301321A703B1C0F33CA
S1132F401B78062BE8D9094B0022DA71094B0122C0
S1132F501A70094B9847BB68181C054B9847012306
S1132F60181CBD4604B080BD912C0000100F002039
S1132F70D92C00000C0F00203530000080B584B03F
S1132F8000AF021CFB1D1A70254B9847031CBB6045
S1132F903B1C0F3302221A701DE03B1C0F331B78BD
S1132FA0204AD35C002B00D11AE03B1C0F331B7862
S1132FB01C4AD35CFA1D12789A4205D1BB68181CCE
S1132FC0194B9847012327E03B1C0F331A783B1C0D
S1132FD00F3301321A703B1C0F331B78072BDCD9DB
S1132FE03B1C0F331B78082B05D1BB68181C0E4BF8
S1132FF09847002310E03B1C0F331B78094AF91D46
S11330000978D154094B01221A70094B9847BB68BF
S1133010181C054B98470123181CBD4604B080BDFD
S1133020912C0000100F0020D92C00000C0F002060
S11330303530000090B583B002AF104B1B78002BE5
S113304001D0002315E00E4B0E4A03CA03C30E4BF6
S113305000221A700A4B0D4A0092842000211A1C87
S113306008230B4CA047031C1A1C044B1A70034B77
S11330701B78181CBD4601B090BDC046180F002037
S11330801C0F0020100F00200C0F002095300000B2
S11330902574000080B582B000AF3960FB1D011CAF
S11330A01970BB1D1A70064B00221A70054B1B7851
S11330B0002B01D0044B9847BD4602B080BDC046EA
S11330C0180F00200C0F00203530000080B500AF31
S11330D0034B1B78181C034B9847BD4680BDC04664
S11330E0080F00206D04000080B500AF0B4B0022D8
S11330F01A700B4B00221A700A4B00221A700A4BEA
S1133100181C00210422094B9847094B00221A700D
S1133110084B9847031C181CBD4680BD240F002093
S1133120280F0020340F0020300F00203BAB00009C
S11331302C0F002095A2000080B500AF014B9847EA
S1133140BD4680BDADA2000098B500AF0448054956
S1133150054A064B064CA047031C181CBD4698BDE7
S1133160240F0020280F0020A80100208131000036
S11331708D31000080B500AF0023181CBD4680BD12
S113318080B500AF0023181CBD4680BD80B584B057
S113319000AFF860B9607A603B60364B1B78DBB2F5
S11331A05BB2002B32DA334B1B781A1C60231340BA
S11331B009D1304B5B78062B05D17B68181C2E4B4C
S11331C09847031C52E02B4B1B781A1C60231340B6
S11331D0202B1BD1274B5B78022B07D0032B0DD060
S11331E0012B13D13B689847031C3FE0214BFA683D
S11331F09A60204B01229A81012337E01D4BBA6863
S11332009A601C4B01229A8101232FE0194B1B78F1
S1133210DBB25BB2002B28DB164B1B781A1C602335
S11332201340202B21D1134B5B780A2B07D00B2B97
S11332300ED0092B19D13B689847031C16E00D4B9F
S11332405B881B0A9BB2DAB2FB681A7001230DE09B
S1133250084BDB88002B01D0002307E0054B5B887B
S1133260DAB2BB681A70012300E00023181CBD46C3
S113327004B080BDDC3A00207D32000080B584B00B
S113328000AF7860224B9847031C0933FB60FB684E
S11332905B78212B01D0002336E01E4B5B881B0A90
S11332A09BB2DBB2212B10D11A4BFA689A60FB68EF
S11332B01B78184AD28898B291B2884200D9131C5C
S11332C09AB2144B9A8101231EE0FB689A79114B40
S11332D05B881B0A9BB2DBB29A4214D10D4B7A680D
S11332E09A60FB68DA791B7A1B0213439BB2094A82
S11332F0D28898B291B2884200D9131C9AB2054B75
S11333009A81012300E00023181CBD4604B080BD4F
S113331029330000DC3A002080B500AF014B181CB3
S1133320BD4680BD4CAB000080B500AF024B1B68AE
S1133330181CBD4680BDC046440F002080B500AFB8
S1133340074B1B681A68064B1B681B689978DB7867
S11333501B020B439BB2D318181CBD4680BDC0464C
S1133360400F002080B584B000AF78600A1CFB1CBD
S11333701A70124B9847031CFB607B681B787A68B1
S1133380D3187B6011E07B685B78042B00D110E0DC
S11333907B685B78FA1C12789A4201D17B6809E059
S11333A07B681B787A68D3187B60FA687B689A42DA
S11333B0E9D80023181CBD4604B080BD3D3300008D
S11333C080B584B000AF0A1CFB1D011C1970BB1D25
S11333D01A70204B1B78002B01D1002336E01E4BC2
S11333E01B681B681B79FA1D12789A4201D30023CB
S11333F02CE0194B1B681A68184B1A60184B984735
S1133400031CFB601CE0154B1B685B78042B0FD17D
S1133410124B1B689B78FA1D12789A4208D10F4B05
S11334201B68DB78BA1D12789A4201D101230DE0A2
S11334300A4B1A68094B1B681B78D218074B1A6091
S1133440064B1B68FA689A42DDD80023181CBD4657
S113345004B080BD3C0F0020400F0020440F00202A
S11334603D33000080B584B000AF021CFB1D1A7010
S1133470FB1D1B78181C0021204B9847031C0122BC
S11334805340DBB2002B01D0002333E01C4B1B68FC
S11334905A68FB1D1B789B00D3181B68BB60BB6874
S11334A0DB689847031CFA1D1278101C191C134B77
S11334B09847031C01225340DBB2002B01D00023A8
S11334C018E0104B1B68FB60FB68181C05210E4BB1
S11334D09847031CFB60FB68002B05D1C046BB6802
S11334E05B689847012305E0FB689B78181C074B31
S11334F09847E9E7181CBD4604B080BDC1330000FD
S1133500400F0020440F002065330000C17000000C
S113351080B584B000AF0A1CFB1D011C1970BB1DD3
S11335201A70FB1D1A78BB1D1B78101C191C204B2C
S11335309847031C01225340DBB2002B01D0002327
S113354031E01C4B1B68FB60FB68181C05211A4BFF
S11335509847031CFB60FB68002B0CD1C046174B3B
S11335601B685A68FB1D1B789B00D3181B681B68DB
S11335709847031C17E0FB689978FB68DA78FB68C6
S113358018795B791B0203439BB2081C111C1A1C9B
S11335900B4B9847031C01225340DBB2002B01D094
S11335A0002300E0D0E7181CBD4604B080BDC0462F
S11335B0C1330000440F002065330000400F002099
S11335C05171000080B500AF014B9847BD4680BDE6
S11335D04D80000080B582B000AF164B1B78002BE5
S11335E015D0FB1D00221A7009E0FB1D1B78181C66
S11335F0114B9847FB1D1A78FB1D01321A700F4BB3
S11336001B681B681B79FA1D12789A42EDD3094B8B
S113361000221A700A4B1A88022313409BB2002B13
S113362001D0084B9847064B01221A80BD4602B0D0
S113363080BDC0463C0F002065340000400F0020D0
S1133640360F002085A1000080B582B000AF164B74
S11336501B78002B25D0FB1D00221A7019E0134B98
S11336601B685A68FB1D1B789B00D3181B681B69D9
S1133670002B09D00D4B1B685A68FB1D1B789B005F
S1133680D3181B681B699847FB1D1A78FB1D013270
S11336901A70064B1B681B681B79FA1D12789A4234
S11336A0DDD3BD4602B080BD3C0F0020400F00209A
S11336B080B500AF074BDB88022B01D0002305E067
S11336C0054B181C0221054B98470123181CBD46C5
S11336D080BDC046DC3A0020360F002099770000F8
S11336E080B500AF0C4BDB88022B01D000230FE028
S11336F0094B9B88DBB2181C084B9847031C1A1C07
S1133700074B1A80064B181C0221064B98470123CD
S1133710181CBD4680BDC046DC3A0020F57200008E
S1133720480F00209977000080B500AF0C4BDB8870
S1133730002B01D000230FE0094B5B88012B0AD139
S1133740084B1B88022293439AB2064B1A80064BFD
S11337509847012300E00023181CBD4680BDC046E5
S1133760DC3A0020360F002085A1000080B500AFB0
S11337700A4BDB88002B01D000230CE0074B5B884D
S1133780002B07D1054B9B88DBB2181C044B9847D0
S1133790031C00E00023181CBD4680BDDC3A002059
S11337A07973000080B500AF0C4BDB88002B01D08F
S11337B0002310E0094B5B88012B02D0C046002394
S11337C009E0074B1B88022213439AB2044B1A8068
S11337D0044B98470123181CBD4680BDDC3A0020E9
S11337E0360F002075A1000080B500AF0D4BDB88BB
S11337F0002B01D0002312E00A4B5B88002B0DD173
S1133800084B9B88DBB2181C074B9847054B9B88D9
S1133810DBB2181C054B9847031C00E00023181C5E
S1133820BD4680BDDC3A00200D700000217300000D
S113383080B500AF054B5B88DAB27F231340DBB25F
S1133840181C034B9847BD4680BDC046DC3A002097
S11338500577000080B500AF064BDB88002B01D054
S1133860002303E0034B044A1A610123181CBD46DC
S113387080BDC046DC3A00203138000080B584B0F9
S113388000AFFB1D00221A70344B5B881A1CFF2307
S11338901340012B0ED002DC002B05D01EE0022BBE
S11338A00ED0032B12D019E02D4B181C04212D4BE4
S11338B098471BE0FB1D0A221A702B4BBB6015E0D6
S11338C0FB1D20221A70294BBB600FE0FB1D0C224C
S11338D01A70274B9847031CBB6007E0254B984799
S11338E0031C002B00D001E0002333E0FB1D1B78F8
S11338F0002B2ED03B1C0F3300221A7013E03B1C0C
S11339000F331B783A1C0F321278B9688A18127870
S113391019495B00CB185A803B1C0F331A783B1CA7
S11339200F3301321A703A1C0F32FB1D12781B78C8
S11339309A42E4D3FB1D1B780133DBB2DB18DAB205
S11339400D4B1A700C4B1B780B4A101C191C054BA1
S113395098470123181CBD4604B080BDDC3A002002
S1133960DC01002099770000E0010020EC01002038
S11339701933000095A100001002002080B582B028
S113398000AF394B5A88FB1D1A70374B5B881B0AF2
S11339909BB2DBB2022B12D002DC012B05D052E029
S11339A0032B45D00F2B2FD04DE0304B1A682F4BF3
S11339B01B681B78101C191C2D4B984745E02B4B9A
S11339C01B685B7CFA1D12789A4201D3002347E0FE
S11339D0264B5A68FB1D1B78DB00D3181A68234B4F
S11339E05968FB1D1B78DB00CB181B689978DB78C2
S11339F01B020B439BB2101C191C1D4B98471A4BFE
S1133A009B6802225A7020E0184B9B68002B01D15E
S1133A10002325E0154B9A68144B9B689978DB7852
S1133A201B020B439BB2101C191C114B98470CE052
S1133A30104B9847031C01225340DBB2002B01D0EA
S1133A4000230DE001E000230AE0074BDA88064B6F
S1133A509B899A4203D2044BDA88034B9A8101234F
S1133A60181CBD4602B080BDDC3A0020B80000201E
S1133A70997700007D38000080B500AF074BDB88E4
S1133A80012B01D0002305E0054B181C0121054B37
S1133A9098470123181CBD4680BDC046DC3A00206F
S1133AA03C0F00209977000080B582B000AF2A4B0C
S1133AB0DB88002B01D0002349E0284B9847031CE6
S1133AC0002B01D1002342E0234B5B881A1CFF2307
S1133AD01A40234B1B685B7C9A4201DD002336E0CD
S1133AE0204B98471C4B5B88DAB21F4B1A701E4B55
S1133AF01B78002B01D1012329E0194B5A681A4B7A
S1133B001B781A495B18DB00D218194B1A60FB1D8D
S1133B1000221A7012E0FB1D1B78181C0021154BA3
S1133B209847031C01225340DBB2002B01D0002331
S1133B300DE0FB1D1A78FB1D01321A700C4B1B683B
S1133B401B681B79FA1D12789A42E4D30123181CCE
S1133B50BD4602B080BDC046DC3A00202D7700008F
S1133B60B8000020D53500003C0F0020FFFFFF1FE8
S1133B70400F00201135000080B582B000AF214B0A
S1133B80DB88012B01D0002337E01F4B1B78002B6F
S1133B9001D1002331E01B4B9A88FB1D1A701B4B8B
S1133BA01B681B681B79FA1D12789A4201D3002303
S1133BB023E0FB1D1B78181C0021154B9847031CA0
S1133BC001225340DBB2002B01D0002315E00F4B40
S1133BD01B685A68FB1D1B789B00D3181B683B604D
S1133BE03B68DB689847031C1A1C0A4B1A70094B84
S1133BF0181C0121084B98470123181CBD4602B02C
S1133C0080BDC046DC3A00203C0F0020400F00205D
S1133C10C1330000380F00209977000080B582B0CE
S1133C2000AF174BDB88002B01D0002323E0154B9A
S1133C301B78002B01D100231DE0114B9A88FB1D3A
S1133C401A700F4B5A88BB1D1A70FB1D1B78181C69
S1133C500D4B9847031C01225340DBB2002B01D0CB
S1133C60002308E0FB1D1A78BB1D1B78101C191CCF
S1133C70064B9847031C181CBD4602B080BDC046C5
S1133C80DC3A00203C0F00206534000011350000B0
S1133C9080B500AF484B1B78DBB25BB2002B41DA36
S1133CA0454BDB88002B01D1002382E0424B1B787B
S1133CB01A1C1F23134014D13F4B5B78062B08D0EA
S1133CC0082B0AD0002B00D00BE03C4B9847031C78
S1133CD06FE03B4B9847031C6BE03A4B9847031C3F
S1133CE067E0354B1B781A1C1F231340012B08D1A6
S1133CF0314B5B780A2B00D003E0334B9847031C0D
S1133D0057E02D4B1B781A1C1F231340022B4FD155
S1133D10294B5B78002B01D0C04649E02B4B9847D8
S1133D20031C46E0244B1B781A1C1F23134019D193
S1133D30214B5B78092B14D89A00254BD3181B68A8
S1133D409F46244B9847031C33E0234B9847031C9E
S1133D502FE0224B9847031C2BE0214B9847031C70
S1133D6027E0C046144B1B781A1C1F231340012B59
S1133D7008D1114B5B780B2B00D003E0194B98470B
S1133D80031C16E00C4B1B781A1C1F231340022B38
S1133D900ED1094B5B78012B02D0032B04D007E032
S1133DA0114B9847031C04E0104B9847031C00E098
S1133DB00023181CBD4680BDDC3A0020B13600004B
S1133DC07D390000793A0000793B0000E1360000BB
S1133DD05CAB00005538000029370000A53700000F
S1133DE0A93A00001D3C00006D370000E9370000CF
S1133DF080B582B000AF224B1B78002B01D1002389
S1133E003AE0204B9A88FB1D1A701F4B1B681B68F5
S1133E101B79FA1D12789A4201D300232CE0FB1D72
S1133E201B78181C0021194B9847031C012253408E
S1133E30DBB2002B01D000231EE0134B1B685A6831
S1133E40FB1D1B789B00D3181B683B603B68DB6839
S1133E509847031CFA1D1278101C191C0B4B984729
S1133E60031C01225340DBB2002B01D0002303E0EA
S1133E703B689B689847031C181CBD4602B080BD74
S1133E803C0F0020DC3A0020400F0020C13300002A
S1133E9080B582B000AF214B1B78002B01D10023E9
S1133EA038E01F4B9A88FB1D1A70FB1D00221A7004
S1133EB027E01C4B1B685A68FB1D1B789B00D3181A
S1133EC01B683B603B68DB689847031CFA1D12784B
S1133ED0101C191C144B9847031C01225340DBB2DD
S1133EE0002B01D0002315E03B689B689847031C16
S1133EF0002B01D001230DE0FB1D1A78FB1D0132BC
S1133F001A70084B1B681B681B79FA1D12789A42B9
S1133F10CFD30023181CBD4602B080BD3C0F002047
S1133F20DC3A0020400F0020C133000080B500AF10
S1133F30204B00229A811F4B00221A611D4B002244
S1133F405A611C4B1B78DBB25BB2002B05DA194BB0
S1133F50DB88002B01D1002329E0164B1B781A1CA7
S1133F606023134006D1144B9847031C002B01D047
S1133F7001231CE00F4B1B781A1C1F231340012B39
S1133F8006D10E4B9847031C002B01D001230EE0F1
S1133F90084B1B781A1C1F231340022B06D1084B15
S1133FA09847031C002B01D0012300E00023181CB8
S1133FB0BD4680BDDC3A0020913C0000F13D00008C
S1133FC0913E000080B582B000AF0F4B1B68002B00
S1133FD012D1EFF310837B607B68002B09D172B69A
S1133FE0BFF35F8F094B00221A70094B01221A702C
S1133FF002E0074B00221A70034B1B685A1C024B49
S11340001A60BD4602B080BD4C0F0020540200204F
S1134010500F002080B500AF0A4B1B685A1E094B95
S11340201A60084B1B68002B0AD1074B1B78DBB2C4
S1134030002B05D0054B01221A70BFF35F8F62B6C7
S1134040BD4680BD4C0F0020500F002054020020BC
S113405080B584B000AF021CFB1D1A703B1C0F33EB
S1134060FA1D1278D2091A703B1C0E33FA1D12780D
S113407052091A700D4BBB603B1C0F331B78002B8D
S11340800ED13B1C0F331B789B001022D219D3187E
S1134090083B1A683B1C0E331B78DB01D31800E085
S11340A00023181CBD4604B080BDC0460044004136
S11340B080B582B000AF021CFB1D1A70FB1D1B787B
S11340C0181C034B9847031C181CBD4602B080BD46
S11340D05140000080B582B000AF78607B68002258
S11340E01A707B6801225A707B6800229A70BD4660
S11340F002B080BD80B584B000AF0A1CFB1D011C5A
S11341001970BB1D1A70FB1D1B78181C0D4B9847AA
S1134110031CFB60FB1D1A781F2313400122111C92
S113412099400B1CBB60BB1D1B78002B03D0FB68A4
S1134130BA689A6102E0FB68BA685A61BD4604B085
S113414080BDC046B140000080B582B000AF3B1DC9
S1134150181C0E4B98473B1D01221A703B1D3E2034
S1134160191C0B4B98473E2001210A4B98473B1DD5
S113417000221A703B1D01225A703B1D0F20191C8E
S1134180034B9847BD4602B080BDC046D5400000F1
S1134190A9470000F540000080B584B000AF021CC0
S11341A0FB1D1A703B1C0F33FA1D127852091A704A
S11341B03B1C0F331B78002B0BD1084BBB603B1C03
S11341C00F331B789B001022D219D318083B1B68AD
S11341D000E00023181CBD4604B080BD0018004058
S11341E080B584B000AF021CFB1D1A70FB1D1B7848
S11341F0181C0C4B9847031CFB60FB1D1A781F23EB
S113420013400122111C99400B1CBB60FB681B6905
S1134210BA6813405A1E9341DBB2181CBD4604B061
S113422080BDC0469941000080B584B000AF021C37
S1134230FB1D1A70FB1D1B78181C094B9847031CA7
S1134240FB60FB1D1A781F2313400122111C9940A7
S11342500B1CBB60FB68BA681A61BD4604B080BD24
S11342609941000080B582B000AF7860FB1C1970E2
S1134270BB1C1A70BB1C1B78002B01D0172319E040
S1134280FB1C1A780D4B9200D358002B07D1FB1C52
S11342901A780A4B92007968D15000230AE0FB1C7B
S11342A01A78064B9200D2587B689A4201D10023B7
S11342B000E01D23181CBD4602B080BDE438002078
S11342C080B584B000AF0A1CFB1D011C1970BB1D16
S11342D01A70BB1D1B78002B0ED1FB1D1B78181CFC
S11342E0084B9847031CFB60FB1D1B7801229A4076
S11342F0FB68DA60002300E01723181CBD4604B0F5
S113430080BDC0469941000080B584B000AF0A1C4E
S1134310FB1D011C1970BB1D1A70BB1D1B78002BE3
S11343200ED1FB1D1B78181C084B9847031CFB601F
S1134330FB1D1B7801229A40FB689A60002300E071
S11343401723181CBD4604B080BDC0469941000027
S113435080B500AF154B00221A7021E0134B1B7877
S1134360181C134B9847031C002B13D00F4B1B78BE
S1134370181C104B98470D4B1B781A1C0E4B9200BF
S1134380D358002B06D0094B1B781A1C0A4B9200F9
S1134390D3589847054B1B780133DAB2034B1A7094
S11343A0024B1B780F2BD9D9BD4680BDE1380020C4
S11343B0E141000029420000E438002080B582B0C9
S11343C000AF78607B6800221A70BD4602B080BDE1
S11343D080B582B000AF021C3960FB1D1A70FB1D52
S11343E01B78012B0AD0022B0FD0002B14D10E4BBB
S11343F00D4A91693A680A439A610FE00A4B0A4AE6
S1134400D1693A680A43DA6108E0074B064A116A3F
S11344103A680A431A6201E0172300E00023181CDB
S1134420BD4602B080BDC0460004004080B582B0E5
S113443000AF78607B6880221A707B6800225A7013
S11344407B6801229A707B680022DA70BD4602B054
S113445080BDC04680B582B000AF021CFB1D1A703F
S1134460064BFA1D1278111C1F220A400121081C58
S11344709040021C1A60BD4602B080BD00E100E01D
S113448080B584B000AF021CFB1D1A703B1C0F33B7
S1134490FA1D127852091A703B1C0F331B78002B3B
S11344A00BD1084BBB603B1C0F331B789B001022C5
S11344B0D219D318083B1B6800E00023181CBD4622
S11344C004B080BD0018004080B582B000AF0F4B2F
S11344D03B6000237B6011E07B689B000822D219BB
S11344E0D318083B1B685B78DBB2DBB25BB2002BF2
S11344F001DA012306E07B6801337B607B68002BD3
S1134500EAD00023181CBD4602B080BD001800404C
S113451080B584B000AF2C4B7B60002040212B4B36
S113452098473B1C181C2A4B98473B1C00221A70C6
S11345303B1C0520191C274B98470520264B984700
S11345400023FB6016E0FB689B001021C919CB18FF
S11345500C3B1A68FB689B001021C919CB180C3B53
S11345601B681B78DBB201210B43DBB21370FB68C1
S11345700133FB60FB68002BE5D0C046174B98471E
S1134580031C002BFAD13B1C0B3300221A700DE0E4
S11345903B1C0B331A78124B92000021D1503B1C68
S11345A00B331A783B1C0B3301321A703B1C0B3350
S11345B01B780F2BECD904200A4B98470A4B9847D9
S11345C0BD4604B080BDC04600180040D143000081
S11345D0BD430000F564000035650000C9440000D7
S11345E0E438002055440000ED45000080B582B059
S11345F000AF144B3B6000237B6016E07B689B009C
S11346000821C919CB18083B1A687B689B0008214C
S1134610C919CB18083B1B681B78DBB202210B437A
S1134620DBB213707B6801337B607B68002BE5D0C1
S1134630C046054B9847031C002BFAD1BD4602B077
S113464080BDC04600180040C944000080B582B057
S113465000AF78607B6800221A607B6800225A6091
S11346607B6801221A727B6801225A727B680022DD
S11346709A727B680222DA72BD4602B080BDC046DF
S113468090B587B000AF021C3960FB1D1A703B1C4B
S11346900833181C374B98473B685B68DAB23B1CFD
S11346A008331A703B1C083300225A703B681A7A8C
S11346B03B1C08339A703B681B68DAB23B1C083316
S11346C0101C191C2C4B9847FB1D1B78181C2B4BDA
S11346D09847031C3B61FB1D1A78072313409B007A
S11346E0FB603B68DB7A7B613B689B7A002B03D0E1
S11346F07B69082213437B61FB1D1B78DB08DBB25B
S11347001A1CFB1D1B78DB08DBB2191C3B69063144
S11347108900CB58F9680F20041C8C40211CC94324
S11347201940FB687869041C9C40231C19433B69AD
S113473006329200D1503B685B7A002B0BD03B6968
S11347405A69FB1D1B780121081C9840031C1A435D
S11347503B695A610BE03B695B69FA1D12780121E0
S11347600C1C9440221CD2431A403B695A61BD463A
S113477007B090BD2D440000D967000081440000BB
S113478080B582B000AF78607B6880221A707B6845
S113479000225A707B6801229A707B680022DA70CA
S11347A0BD4602B080BDC04680B584B000AF021CD7
S11347B03960FB1D1A703B1C0C33181C0F4B9847B7
S11347C03B1C0C3380221A703B681A783B1C0C3358
S11347D05A703B685A783B1C0C339A703B689A7841
S11347E03B1C0C33DA70FB1D1A783B1C0C33101C79
S11347F0191C034B9847BD4604B080BD8147000097
S1134800D967000080B582B000AF78607B68002271
S11348101A70BD4602B080BDB0B58EB000AF38612D
S11348207961BA60FB6000220023BA62FB62002255
S113483000233A627B623F237B635BE07B6B203B1C
S1134840002B05DB0122101C9840031CFB610DE0CA
S11348507B6B2022D31A0122111CD9400B1C00218E
S11348607A6B081C9040021C1343FB6101227B6B92
S1134870111C99400B1CBB613A6A7B6A92185B411C
S11348803A627B623B69BA69141C1C407B69FA6911
S1134890151C1D40231C2B4307D03B6A01221343E4
S11348A03B627B6A002213437B62FA687B6A9A420A
S11348B01DD8FA687B6A9A4203D1BA683B6A9A4265
S11348C015D83A6A7B6A3A607B60BA68FB683868D4
S11348D07968801A9941021C0B1C3A627B62BA6A9D
S11348E0BB691343BB62FA6AFB691343FB627B6BCC
S11348F0013B7B637B6B002BA0DABB6AFC6A181C50
S1134900211CBD460EB0B0BD80B586B000AFF860C6
S1134910B9607A603B1C163300221A80BB683B6185
S1134920BB685A08FB689A4201D2402326E0BB6860
S11349305B083B610AE03A69FB68D31A3B613B1CA4
S113494016331A883B1C163301321A803A69FB6805
S11349509A42F0D23B1C16333A1C16321288013AA2
S11349601A803B1C16331B88FF2B01D9402305E01A
S11349707B683A1C163212881A800023181CBD4624
S113498006B080BD00000000F0B59DB000AFF86334
S1134990B9637A633A1C3332137000230024BB6575
S11349A0FC65002300243B657C6500230024BB6672
S11349B0FC6600233B663B1C88331A78FB6B5A4326
S11349C0BB6B9A4201D94023AFE03B1C33331B78C5
S11349D0002B43D13B1C88331B78DBB2BB62002322
S11349E0FB62FB6B3B6200237B62554CB86AF96A3D
S11349F03A6A7B6AA047031C0C1C1B00FB6400235F
S1134A00BB64BB6BBB610023FB61BB6CFC6C181CFF
S1134A10211CBA69FB694B4CA047031C0C1CBB65E9
S1134A20FC65464A4449BB6DFC6D0D1C161CED1A11
S1134A30A6412B1C341C3B657C653B6D1B0C7A6DBD
S1134A4012047A617E691E437E613B6D1B043B61E7
S1134A507A691300BB660023FB6660E03B1C3333BA
S1134A601B78012B5BD13B1C673300221A7040E09A
S1134A70BB6B1D1C00231E1C6B0FF2001343FB6455
S1134A80EB00BB64FB6BBB600023FB603B1C883307
S1134A901B78DBB23B6000237B60294CB868F96863
S1134AA03A687B68A047031C0C1C3B647C64B96CAB
S1134AB0FA6C3B6C7C6C081C111C1A1C231C214CCA
S1134AC0A047031C0C1C3B663B1C67331B783A6EE7
S1134AD0D31A3B663B6EDB083B663A6E1A4B9A422E
S1134AE000D80BE03B1C67331A783B1C6733013258
S1134AF01A703B1C67331B78072BB9D93B1C6733EF
S1134B001B78082B01D140230FE03B1C67331B7833
S1134B105B031A1C3B6E1343BB660023FB66BB6E30
S1134B20FC6E9AB27B6B1A800023181CBD461DB024
S1134B30F0BDC046C046C0460000000001000000B1
S1134B4099AA000019480000FF1F0000C046C04693
S1134B5080B584B000AF0A1CFB1D011C1970BB1D7D
S1134B601A701A4B1B7801225340DBB2002B03D17D
S1134B70BB1D1B78002B1BD03B1C0C33181C144B87
S1134B8098473B1C0C33FA1D12781A703B1C0C33EB
S1134B901320191C0F4B984713200F4B98470B4BAE
S1134BA0FA1D12785A70094B01221A70002308E08A
S1134BB0064B5B78FA1D12789A4201D1002300E07B
S1134BC01D23181CBD4604B080BDC046540F0020F0
S1134BD005480000F56400003565000080B582B02A
S1134BE000AF78600A1CFB1C1A707B684D4A934224
S1134BF03FD04C4A934206D84B4A93420FD04B4A7B
S1134C00934221D089E04A4A934200D15BE0494A69
S1134C10934200D16CE0484A93423FD07DE0FB1CB4
S1134C201B78012B0AD002DC002B05D075E0022B87
S1134C3006D0032B06D070E0404B6FE0404B6DE094
S1134C40404B6BE0404B69E0FB1C1B78012B0AD006
S1134C5002DC002B05D060E0022B06D0032B06D02B
S1134C605BE003235AE0394B58E0394B56E0394BAB
S1134C7054E0FB1C1B78012B0AD002DC002B05D06E
S1134C804BE0022B06D0032B06D046E0324B45E026
S1134C90324B43E0324B41E0324B3FE0FB1C1B788C
S1134CA0012B0AD002DC002B05D036E0022B06D003
S1134CB0032B06D031E02C4B30E02C4B2EE02C4B58
S1134CC02CE02C4B2AE0FB1C1B78012B0AD002DCC5
S1134CD0002B05D021E0022B06D0032B06D01CE0CC
S1134CE0254B1BE0254B19E0254B17E0254B15E020
S1134CF0FB1C1B78012B0AD002DC002B05D00CE036
S1134D00022B06D0032B06D007E01F4B06E01F4BF7
S1134D1004E01F4B02E01F4B00E00023181CBD46BB
S1134D2002B080BD0010004200080042000C0042A6
S1134D3000180042001C004200140042030004005A
S1134D400300050003000600030007000300010040
S1134D5003001E0003001F000300080003000900F5
S1134D6003000A0003000B000300100003001100FD
S1134D70030012000300130003000C0003000D00E5
S1134D8003000E0003000F000300160003001700C9
S1134D90030018000300190090B58BB000AF7860D1
S1134DA03B1C0C330E4A13CA13C313CA13C3002388
S1134DB07B620DE07A683B1C0C33796A8900CB581E
S1134DC09A4202D17B6ADBB206E07B6A01337B62E2
S1134DD07B6A052BEED90023181CBD460BB090BD91
S1134DE084AB000080B582B000AF021CFB1D1A70BA
S1134DF0BD4602B080BDC04680B584B000AF021C81
S1134E003960FB1D1A70134B1B7801225340DBB22F
S1134E10002B15D00023FB600CE00F4BFA689200C6
S1134E200E49D1500E4BFA6892000021D150FB6814
S1134E300133FB60FB68052BEFD9064B01221A7086
S1134E40FB1D1A78044B92003968D150BD4604B05A
S1134E5080BDC046580F00205C0F0020E54D0000C7
S1134E602439002090B585B000AF78603A1C083230
S1134E700E4B111C1A1C0623081C111C1A1C0C4B6B
S1134E8098473C1C0F347B68181C0A4B9847031C3A
S1134E9023703B1C0F331B783A1C0832D35CDBB203
S1134EA05BB2181CBD4605B090BDC0469CAB00006B
S1134EB029AB0000994D000080B500AF024B1B6880
S1134EC000209847BD4680BD5C0F002080B500AF30
S1134ED0024B5B6801209847BD4680BD5C0F0020F3
S1134EE080B500AF024B9B6802209847BD4680BD49
S1134EF05C0F002080B500AF024BDB6803209847AD
S1134F00BD4680BD5C0F002080B500AF024B1B691D
S1134F1004209847BD4680BD5C0F002080B500AFDB
S1134F20024B5B6905209847BD4680BD5C0F00209D
S1134F3080B582B000AF78607B6800221A70BD46ED
S1134F4002B080BD80B582B000AF021C3960FB1D89
S1134F501A70FB1D1B78012B0AD0022B0FD0002BDB
S1134F6014D10E4B0D4A91693A680A439A610FE0D5
S1134F700A4B0A4AD1693A680A43DA6108E0074BE6
S1134F80064A116A3A680A431A6201E0172300E0EC
S1134F900023181CBD4602B080BDC046000400407A
S1134FA080B582B000AF78607B6880221A707B681D
S1134FB000225A707B6801229A707B680022DA70A2
S1134FC0BD4602B080BDC04680B500AF054B9B789E
S1134FD0DBB21A1C022313405A1E9341DBB2181C85
S1134FE0BD4680BD0020004180B584B000AF78602C
S1134FF07B681B68FB60FB68DB695A1E9341DBB26C
S1135000181CBD4604B080BD80B582B000AF786086
S1135010C0467B68181C044B9847031C002BF8D12E
S1135020BD4602B080BDC046E94F0000B0B58CB0AB
S113503002AF786039607B681B68BB617B681B6862
S1135040181CAD4B9847031C7B617B6914333B618F
S113505000237B6200233B623B1C0E3300221A8038
S11350603B1C1F3300221A703B1C1E3310221A7083
S11350703B681B8A8022D20193421CD08022D20139
S1135080934206DC002B0DD080229201934224D05F
S113509035E0C022D201934228D0802212029342EA
S11350A012D02CE03B1C1F3300221A703B1C1E3311
S11350B010221A7023E03B1C1F3300221A703B1C81
S11350C01E3308221A701AE03B1C1F3300221A7088
S11350D03B1C1E3303221A7011E03B1C1F330122B8
S11350E01A703B1C1E3310221A7008E03B1C1F333D
S11350F001221A703B1C1E3308221A70C0463B68FA
S11351001A683B68DB681A433B685B691A433B686F
S11351101B8A1A433B681B7E1B021A4339682623E9
S1135120CB5C5B0713437B623B1C1D3300221A706C
S11351303B685B68002B20D08022520593424ED1FD
S11351403A682723D35C01225340DBB2002B13D0EF
S11351503B681D6A3B69DBB2181C684B9847021C0C
S11351603C1C1D343B1C0E33281C111C1A1C644BA4
S11351709847031C237032E031E03A682723D35C5C
S1135180002B13D03B68186A3B68996A3C1C1D3499
S11351903A1C0E323B1C1F331B783D1C1E352D78E8
S11351A00095584DA847031C237017E03B681D6AFF
S11351B03B69DBB2181C514B9847011C3C1C1D3445
S11351C03A1C0E323B1C1F331B78381C1E300078EF
S11351D00090281C4B4DA847031C2370C0463B1C61
S11351E01D331B78002B03D03B1C1D331B787EE042
S11351F03B685B7E002B03D03B689A7EBB699A7345
S11352007B68181C404B98473B1C0E331A88BB69BB
S11352109A813B685B687A6A13437B623A68272306
S1135220D35C01225340DBB2002B03D07B6A0422FF
S113523013437B623B689A7A3B68DB7A1343DBB2A5
S11352401A1C3B685B7E9B021A433B681B7F5B0214
S11352501A433B685B7F1B021A4339682423CB5CE7
S11352605B041A4339682523CB5C1B0413433B625C
S11352703B681B89FF2B14D03B68DB7E002B05D0D9
S11352807B6AA022D20413437B6204E07B6A8022FF
S1135290520413437B623B681B893A6A13433B62A3
S11352A008E03B68DB7E002B04D07B6A8022D204BA
S11352B013437B623A682C23D35C002B04D1134B39
S11352C09847031C002B03D07B6A802213437B6224
S11352D07B68181C0C4B9847BB693A6A5A607B6818
S11352E0181C094B9847BB697A6A1A600023181C7A
S11352F0BD460AB0B0BDC046994D0000116600001D
S1135300094900008949000009500000C94F000004
S113531090B593B000AFF860B9607A603B1C3B3342
S113532000221A70FB68BA681A60FB681B687B630A
S1135330FB681B68181C864B9847031C3B633B6B3C
S11353400233FB623B6B1433BB627B6B1A68012331
S1135350134001D00523F6E07B6B1A680223134047
S113536001D01C23EFE0FB6A0122111C99400B1CA5
S11353700220191C774B98473B1C2433181C764B8E
S113538098477A682D23D25C3B1C24331A70BB6A7D
S1135390DAB23B1C2433101C191C704B9847BB6AAF
S11353A0DBB2181C6E4B98477A682D23D35C181C0B
S11353B000216C4B98477B68DA7AFB685A717A68EB
S11353C02423D25CFB689A717A682523D25CFB683B
S11353D0DA717B68DA7EFB681A727B681A7FFB6875
S11353E05A723C1C3B34FA687B68101C191C5E4BD7
S11353F09847031C23703B1C3B331B78002B03D0C2
S11354003B1C3B331B789EE03B1C2033181C574B42
S113541098473B1C203300225A703B1C2033002247
S11354209A707B681A6B3B1C10331A607B685A6B4A
S11354303B1C10335A607B689A6B3B1C10339A6098
S11354407B68DA6B3B1C1033DA603B1C4733002269
S11354501A702CE03B1C47331A783B1C1033920023
S1135460D3583B643B6C002B09D1BA683B1C4733CF
S11354701B78101C191C3E4B9847031C3B643B6C67
S113548001330DD03B6CDAB23B1C20331A703B6CF9
S11354901B0CDAB23B1C2033101C191C354B9847EB
S11354A03B1C47331A783B1C473301321A703B1CB0
S11354B047331B78032BCDD90023FB6309E0FA683B
S11354C0FB6B02339B00D31800225A60FB6B013341
S11354D0FB63FB6B052BF2D9FB6800229A62FB6825
S11354E000225A62FB680022DA85FB6800229A8552
S11354F0FA6830230021D154FA6831230021D154B1
S1135500FA6832230021D154FA6833230021D1549C
S1135510FB681B683C1C2734181C0D4B9847031C64
S113552023703B1C27331A78134B101C191C134B84
S113553098473B1C27331A78114B9200F968D150D5
S11355403B1C3B331B78181CBD4613B090BDC046B2
S1135550994D0000454F0000314F0000F5640000F4
S113556035650000514B00002D500000A14F000094
S1135570DD4B0000D96700009D570000F94D000085
S11355802439002080B500AF014B9847BD4680BD4B
S1135590C53F000080B500AF014B9847BD4680BDB4
S11355A01540000080B584B000AF78607B681B684C
S11355B0FB60FB68DB695A1E9341DBB2181CBD46D5
S11355C004B080BD80B582B000AF7860C0467B680F
S11355D0181C044B9847031C002BF8D1BD4602B09D
S11355E080BDC046A555000080B586B000AFF86008
S11355F0B960BB1D1A80FB681B687B610F4B984721
S1135600FB68DB8D9BB2002B03D00D4B9847052321
S113561010E0FB68BA1D1288DA85094B9847FB68CD
S1135620BA689A62FA6833230521D1547B6901224E
S11356309A750023181CBD4606B080BD8555000030
S11356409555000080B586B000AFF860B960BB1D09
S11356501A80FB681B687B61164B9847FB689B8D1F
S11356609BB2002B03D0144B984705231EE0FB6824
S1135670BA1D12889A85104B9847FB68BA685A621B
S1135680FA6832230521D1547B6904229A75FB6898
S11356901B7A002B02D07B6920229A75FB685B7A07
S11356A0002B02D07B6908229A750023181CBD4682
S11356B006B080BD855500009555000080B584B0C6
S11356C000AFF860B960FB1D1A70FB1D1B78FA6807
S11356D002339B00D318BA685A60FA683023D35C4B
S11356E0DAB2FB1D1B780121081C9840031CDBB2B5
S11356F01343DBB2D9B2FA683023D154BD4604B0A7
S113570080BDC04680B584B000AFF860B960BB1DF1
S11357101A80BB1D1B88002B01D1172312E0FB68E4
S1135720DB7901225340DBB2002B01D01C2309E0BA
S1135730F968BA68BB1D1B88081C111C1A1C034B92
S11357409847031C181CBD4604B080BDE9550000F1
S113575080B584B000AFF860B960BB1D1A80BB1D72
S11357601B88002B01D1172312E0FB689B790122CF
S11357705340DBB2002B01D01C2309E0F968BA685E
S1135780BB1D1B88081C111C1A1C034B9847031CC7
S1135790181CBD4604B080BD4556000080B588B0D5
S11357A000AF021CFB1D1A70FB1D1A78B04B92004F
S11357B0D358BB61BB691B687B61BB69181CAD4BCB
S11357C098477B691B7EDAB23B1C12331A807B69D3
S11357D09B7DDBB21A1C3B1C1233391C1231098825
S11357E00A401A80BA693023D35CB96931228A5CD1
S11357F01340DAB23B1C10331A803B1C12331A8854
S11358000123134044D0BB69DB8D9BB2002B3CD0F9
S1135810BB699B6A1B78DAB23B1C1C331A80BB69D8
S11358209B6A5A1CBB699A62BB695B79012B12D1D2
S1135830BB699B6A1B78DBB21B029AB23B1C1C330C
S11358401B8813439AB23B1C1C331A80BB699B6AA6
S11358505A1CBB699A623B1C1C331B88DB05DB0D9D
S11358609AB27B691A85BB69DB8D9BB2013B9BB203
S1135870BA69191CD185002B06D17B6901221A75DE
S11358807B6902229A7503E002E07B6901221A75A2
S11358903B1C12331A880223134011D07B69022265
S11358A01A75BA6933230021D1543B1C10331A886A
S11358B00123134004D0BB69DB68BA69101C984704
S11358C03B1C12331A880423134000D1D7E0BB6970
S11358D09B8D9BB2002B00D1CEE07B695B8B9BB28E
S11358E0D9B23B1C1F333F220A401A703B1C1F33A2
S11358F01A780823134007D03B1C1F333A1C1F326D
S1135900127808218A431A703B1C1F331B78002B22
S113591000D169E03B1C1F331A78022313400CD0DA
S1135920BA6932231A21D1547B695B8B9BB2022260
S113593013439AB27B695A834AE03B1C1F331A789B
S1135940042313400CD0BA6932231E21D1547B693D
S11359505B8B9BB2042213439AB27B695A8337E070
S11359603B1C1F331A78012313400CD0BA6932232D
S11359701321D1547B695B8B9BB2012213439AB2EE
S11359807B695A8324E03B1C1F331A78102313408D
S11359900CD0BA6932234221D1547B695B8B9BB210
S11359A0102213439AB27B695A8311E03B1C1F33C4
S11359B01A78202313400BD0BA6932234121D154E1
S11359C07B695B8B9BB2202213439AB27B695A8317
S11359D03B1C10331A880423134050D0BB695B6905
S11359E0BA69101C98474AE07B691B8D9AB23B1C2C
S11359F00E33D205D20D1A80BB695B6A3A1C0E3293
S1135A001288D2B21A70BB695B6A5A1CBB695A62AB
S1135A10BB695B79012B0DD1BB695B6A3A1C0E3201
S1135A201288120A92B2D2B21A70BB695B6A5A1C0B
S1135A30BB695A62BB699B8D9BB2013B9BB2BA693D
S1135A40191C9185002B12D17B6904221A75BA693D
S1135A5032230021D1543B1C10331A8802231340F3
S1135A6005D0BB691B69BA69101C984707E006E0BA
S1135A7024390020C55500007B6904221A753B1C9B
S1135A8012331A881023134010D07B6910221A7520
S1135A907B6910221A763B1C10331A88102313409A
S1135AA004D0BB69DB69BA69101C98473B1C1233EC
S1135AB01A882023134010D07B6920221A757B6931
S1135AC020221A763B1C10331A880823134004D072
S1135AD0BB699B69BA69101C98473B1C12331A882E
S1135AE00823134010D07B6908221A757B690822A9
S1135AF01A763B1C10331A882023134004D0BB6948
S1135B001B6ABA69101C9847BD4608B080BDC046E0
S1135B1080B582B000AF78607B6801225A607B68F0
S1135B2000225A707B6806221A707B6800221A725F
S1135B307B6800225A72BD4602B080BD80B582B037
S1135B4000AF78607B6803221A707B6800225A7069
S1135B507B6801229A70BD4602B080BD80B582B0D8
S1135B6000AF78607B6800221A707B6800225A803C
S1135B707B6800229A807B6800229A717B680022ED
S1135B80DA717B6801225A707B6807221A727B687B
S1135B903F225A817B6801221A737B680122DA81D1
S1135BA07B6806221A82BD4602B080BD80B582B0F1
S1135BB000AF021CFB1D1A70034BFA1D12781A72F7
S1135BC0BD4602B080BDC0460004004080B582B02E
S1135BD000AF0A1CFB1D011C1970BB1D1A70FB1DB4
S1135BE01B78012B08D0022B0BD0002B0ED10B4BB2
S1135BF0BA1D12785A720BE0084BBA1D12789A72C9
S1135C0006E0064BBA1D1278DA7201E0172300E0B1
S1135C100023181CBD4602B080BDC04600040040ED
S1135C2080B582B000AF021CFB1D1A70084BFA1D30
S1135C3011780F220A40D1B20F220A40520059684B
S1135C401E2081430A435A60BD4602B080BDC0464F
S1135C500040004180B500AFC046034BDA68102312
S1135C601340FAD0BD4680BD0008004080B500AFA7
S1135C700C4A0D4B1B689BB280218B439BB29384CF
S1135C800A4B9847074B084A9268DA62054B064A62
S1135C9052689A62034A044B1B689BB29384BD46C4
S1135CA080BDC04600080040740F0020555C000011
S1135CB080B582B000AF021CFB1D1A70FB1D1B785F
S1135CC0082B43D89A00244BD3181B689F46234BB8
S1135CD01B693CE0224B1B6A1B0A1A1C032313405A
S1135CE0DBB2204A111CD9400B1C30E080231B027C
