S016000053696D706C654B6579426F6172642E7372656393
S113000000800020ADA500009DA600009DA6000074
S113001000000000000000000000000000000000DC
S11300200000000000000000000000009DA6000089
S113003000000000000000009DA600009DA6000036
S11300409DA600009DA600009DA600009DA60000A0
S1130050394A00009DA600009DA600001DA20000D4
S11300609DA60000A1550000B5550000C95500002B
S1130070DD550000F1550000055600009DA6000066
S11300809DA600009DA600009DA600009DA6000060
S11300909DA600009DA600009DA600009DA6000050
S11300A09DA600009DA600009DA600009DA6000040
S11300B010B5064C2378002B07D1054B002B02D03A
S11300C0044800E000BF0123237010BD0803002092
S11300D00000000000B6000008B5084B002B03D058
S11300E00748084900E000BF07480368002B03D015
S11300F0064B002B00D0984708BDC0460000000006
S113010000B600000C03002000B600000000000050
S113011080B500AF0020104B9847021C0F4B1A60AB
S11301200E4B1A680E4B101CFA2291009847031CC0
S11301301A1C0A4B1A60094B1A68094B101CFA2244
S113014091009847031C1A1C064B1A60064B0522A3
S11301501A60BD4680BDC046F16A00000000002060
S1130160F5B000000400002010E000E080B582B08B
S113017000AF78607B685B09181CBD4602B080BD87
S113018080B582B000AF78607B68DB01024A9B18BF
S1130190181CBD4602B080BD0044004180B582B049
S11301A000AF78607B68181C054B9847031C181C2B
S11301B0044B9847031C181CBD4602B080BDC046C2
S11301C06D0100008101000080B582B000AF78604D
S11301D07A681F2313400122111C99400B1C181C20
S11301E0BD4602B080BDC04680B500AFBD4680BDEF
S11301F080B58AB000AFF860B9607A60FB68181CFB
S11302002D4B9847031C3B6200237B620023FB6158
S11302107B6A8022920213437B627A682023134014
S113022003D17A681023134004D07B6A8022D2025F
S113023013437B627A688023134004D07B6A802254
S1130240D20313437B627A680F2313401B06FB61BE
S1130250BB681B041B0CBB61BB681B0C7B61BA69CC
S11302607B6A1A43FB691343A022D2051A433B6AF3
S11302709A627A697B6A1A43FB691343D022120695
S11302801A433B6A9A627A682023134006D03B6A79
S11302905A69BB681A433B6A5A6109E07A681023B9
S11302A0134005D03B6A9A69BB681A433B6A9A615A
S11302B0BD460AB080BDC0468101000090B583B040
S11302C000AF786039607B68181C084B9847041CA1
S11302D07B68181C064B9847021C3B68201C111CA9
S11302E01A1C044B9847BD4603B090BD6D01000035
S11302F0C9010000F101000080B584B000AF78604E
S11303000A1CFB1C1A707B68181C184B9847031CAA
S1130310FB60FB1C1B78012B07D17B68181C144B5A
S11303209847021CFB689A600AE0FB1C1B78002BB0
S113033006D17B68181C0E4B9847021CFB685A6058
S11303407B68181C0B4B9847031CF9684022C9189A
S11303508A181278D2B202210A43D2B2F868402134
S1130360C3185B181A70BD4604B080BD9D0100001F
S1130370C90100006D01000090B583B000AF786042
S11303800A1CFB1C1A70FB1C1B78002B0BD07B680F
S1130390181C0C4B9847041C7B68181C0A4B984784
S11303A0031CA3610AE07B68181C064B9847041CD5
S11303B07B68181C044B9847031C6361BD4603B05B
S11303C090BDC0469D010000C901000090B583B0F6
S11303D000AF78607B68181C084B9847031C1C6AA4
S11303E07B68181C064B9847031C23405A1E9341F4
S11303F0DBB2181CBD4603B090BDC0469D01000091
S1130400C901000080B500AF014B9847BD4680BDCF
S1130410E901000080B582B000AF786039607A6885
S11304203B68101C191C024B9847BD4602B080BDA6
S1130430BD02000080B582B000AF78600A1CFB1CCE
S11304401A707A68FB1C1B78101C191C024B984705
S1130450BD4602B080BDC046F902000080B582B03E
S113046000AF78600A1CFB1C1A707A68FB1C1B78AE
S1130470101C191C024B9847BD4602B080BDC046F3
S11304807903000080B582B000AF78607B68181CE7
S1130490034B9847031C181CBD4602B080BDC046E0
S11304A0CD03000080B586B000AF3B1C153300229D
S11304B01A703B1C173300221A703B1C163300229F
S11304C01A709F4B2F221A609D4B2E225A609C4B10
S11304D02D229A609A4B2C22DA60994B2B221A61B6
S11304E0974B2A225A61964B26229A61944B2522D5
S11304F0DA61934B24221A62914B23225A62904B65
S113050022229A628E4B2122DA628D4B20221A63B8
S11305108C4B14221A608B4B13225A60894B122283
S11305209A60884B1122DA60864B10221A61854B3F
S11305300B225A61834B0A229A61824B0922DA61A7
S1130540804B08221A627F4B07225A627D4B062297
S11305509A627C4B0522DA627A4B04221A633B1CB2
S1130560143300221A703B1C173300221A70C04641
S1130570754B9847754B98473B1C173300221A70EC
S1130580D4E03B1C17331B78742253431A1C883263
S11305906B4BD3183B613B1C17331B7874225343BA
S11305A01A1C8832674BD318FB603B1C17331A782C
S11305B0634B9200D2583B691A603B1C17331A787C
S11305C0604B9200D258FB681A603B1C1633002221
S11305D01A7086E03B1C16331B781B013A69D3184A
S11305E00433BB603B1C16331B781B01FA68D31819
S11305F004337B603B1C16331A78514B063292004D
S1130600D258BB681A60BB6800225A71BB680022CA
S11306101A71BB6800225A733B1C17331A783B1CAF
S1130620163318784A49131CDB009B1A1B185A5CB2
S1130630BB681A73BB6800229A71BB680022DA7126
S1130640BB6800229A73BB6800229A603B1C163375
S11306501A783C4B06329200D2587B681A607B6849
S113066000225A717B6800221A717B6800225A7337
S11306703B1C17331A783B1C163318783449131C67
S1130680DB009B1A1B185A5C7B681A737B68002278
S11306909A717B680022DA717B6800229A737B6806
S11306A000229A60BB681B68181C0021294B9847DC
S11306B0BB681B68181C2021274B98477B681B6864
S11306C0181C0021234B98477B681B68181C2021A9
S11306D0214B98473B1C16331A783B1C16330132C6
S11306E01A703B1C16331B78062B00D872E73B6943
S11306F01B68181C0121174B98473B691B68181C81
S11307000021164B9847FB681B68181C0121114BEC
S11307109847FB681B68181C0021104B98473B1C2A
S113072017331A783B1C173301321A703B1C1733EA
S11307301B78052B00D824E7BD4606B080BDC04613
S113074024030020640600200504000011010000B9
S11307500800002035040000150400005D040000BA
S113076080B586B000AF3B1C173300221A703B1CC7
S1130770163300221A703B1C173300221A70E7E06C
S11307803B1C17331B78742253431A1C8832764B54
S1130790D3183B613B1C17331B78742253431A1C38
S11307A08832724BD318FB603B691B68181C01210B
S11307B06F4B9847FB681B68181C01216C4B9847CA
S11307C03B1C163300221A70A9E03B1C16331B781D
S11307D01B013A69D3180433BB603B1C16331B78E6
S11307E01B01FA68D31804337B60BB685A79BB6871
S11307F01A71BB681B68181C5E4B9847031C1A1CB3
S1130800BB685A71BB685B79002B14D0BB681B7939
S1130810002B10D0BB689B685A1CBB689A60BB68ED
S11308209B68012B03D1BB6801229A712DE0BB6840
S113083000229A7129E0BB685B7901225340DBB244
S1130840002B1CD0BB681B7901225340DBB2002B68
S113085015D0BB689B68002B0AD0BB68DB790122EA
S11308605340DBB2002B03D0BB680122DA710CE0E9
S1130870BB680022DA71BB6800229A6005E0BB689D
S11308800022DA71BB6800229A717B685B79002BC5
S113089014D07B681B79002B10D07B689B685A1C92
S11308A07B689A607B689B68012B03D17B6801227B
S11308B09A712DE07B6800229A7129E07B685B794C
S11308C001225340DBB2002B1CD07B681B79012230
S11308D05340DBB2002B15D07B689B68002B0AD0F9
S11308E07B68DB7901225340DBB2002B03D07B68A9
S11308F00122DA710CE07B680022DA717B68002245
S11309009A6005E07B680022DA717B6800229A71A4
S11309103B1C16331A783B1C163301321A703B1CED
S113092016331B78062B00D84FE73B691B68181C4D
S113093000210F4B9847FB681B68181C00210C4BC7
S113094098473B1C17331A783B1C173301321A7033
S11309503B1C17331B78052B00D811E70023181C08
S1130960BD4606B080BDC0462403002064060020B6
S11309705D0400008504000080B588B000AF786095
S11309803B1C1F3300221A703B1C1E3300221A70BA
S11309903B1C1D3300221A703B1C1F3300221A70AB
S11309A05BE03B1C1F331B78742253431A1C8832B0
S11309B0304BD318BB613B1C1F331B787422534349
S11309C01A1C88322C4BD3187B613B1C1E3300222B
S11309D01A7036E03B1C1E331B781B01BA69D3180E
S11309E004333B613B1C1E331B781B017A69D3180B
S11309F00433FB603B699B79002B0BD03B1C1D33FC
S1130A001B783A1C1D32591C11709B007A68D3184C
S1130A103A691A60FB689B79002B0BD03B1C1D3391
S1130A201B783A1C1D32591C11709B007A68D3182C
S1130A30FA681A603B1C1E331A783B1C1E330132C1
S1130A401A703B1C1E331B78062BC3D93B1C1F3367
S1130A501A783B1C1F3301321A703B1C1F331B785E
S1130A60052B9ED93B1C1D331B78181CBD4608B0B2
S1130A7080BDC046240300206406002080B588B0F1
S1130A8000AF78603B1C1F3300221A703B1C1E33DE
S1130A9000221A703B1C1D3300221A703B1C1F33AA
S1130AA000221A705BE03B1C1F331B7874225343F3
S1130AB01A1C8832304BD318BB613B1C1F331B7884
S1130AC0742253431A1C88322C4BD3187B613B1C71
S1130AD01E3300221A7036E03B1C1E331B781B01A8
S1130AE0BA69D31804333B613B1C1E331B781B01CA
S1130AF07A69D3180433FB603B69DB79002B0BD094
S1130B003B1C1D331B783A1C1D32591C11709B0071
S1130B107A68D3183A691A60FB68DB79002B0BD02A
S1130B203B1C1D331B783A1C1D32591C11709B0051
S1130B307A68D318FA681A603B1C1E331A783B1C77
S1130B401E3301321A703B1C1E331B78062BC3D98B
S1130B503B1C1F331A783B1C1F3301321A703B1C99
S1130B601F331B78052B9ED93B1C1D331B78181C87
S1130B70BD4608B080BDC0462403002064060020A2
S1130B8080B584B000AF021CFB1D1A703B1C0F33F0
S1130B90FA1D1278D2091A703B1C0E33FA1D127812
S1130BA052091A700D4BBB603B1C0F331B78002B92
S1130BB00ED13B1C0F331B789B001022D219D31883
S1130BC0083B1A683B1C0E331B78DB01D31800E08A
S1130BD00023181CBD4604B080BDC046004400413B
S1130BE080B582B000AF021CFB1D1A70FB1D1B7880
S1130BF0181C034B9847031C181CBD4602B080BD4B
S1130C00810B000080B584B000AF0A1CFB1D011CE1
S1130C101970BB1D1A70FB1D1B78181C0D4B9847CF
S1130C20031CFB60FB1D1A781F2313400122111CB7
S1130C3099400B1CBB60BB1D1B78002B03D0FB68C9
S1130C40BA689A6102E0FB68BA685A61BD4604B0AA
S1130C5080BDC046E10B000080B500AF014B984752
S1130C60BD4680BDD97E000080B500AF034B9847D8
S1130C703E200021024B9847BD4680BD590C000020
S1130C80050C000080B584B000AF3B1D181C144B4C
S1130C9098473B1D0F221A603B1D00225A603B1DE2
S1130CA001221A723B1D01229A723B1D0222DA7242
S1130CB03B1D0F20191C0B4B98470B4B181C0F2185
S1130CC000220A4B98470F200021094B9847094BF3
S1130CD098473E200021084B9847BD4604B080BD8C
S1130CE0354D0000694D0000690C00004D490000BD
S1130CF0A9490000A5040000050C000080B500AF60
S1130D003E200121014B9847BD4680BD050C0000E3
S1130D1080B500AF0F200021014B9847BD4680BD30
S1130D20A949000080B500AF0F200021014B98476E
S1130D30BD4680BDF149000080B500AF3E200021D2
S1130D40014B9847BD4680BD050C000080B582B0BC
S1130D5000AF021CFB1D1A70BD4602B080BDC04628
S1130D6080B582B000AF021CFB1D1A70BD4602B0F4
S1130D7080BDC04680B500AFBD4680BD80B500AF24
S1130D80BD4680BD80B500AFBD4680BD80B500AF17
S1130D90BD4680BD80B500AFBD4680BD80B500AF07
S1130DA0BD4680BD80B500AFBD4680BD80B500AFF7
S1130DB0BD4680BD80B500AFBD4680BD90B5AFB027
S1130DC000AF021CBB1D1A803B1CB53300221A70F5
S1130DD03B1CB73300221A703B1CB63300221A7036
S1130DE03B1CB43300221A70834B1B780133DAB2F4
S1130DF0814B1A70804B1B780E2B00D8F8E07E4B89
S1130E0000221A703B1C0C33181C0021A8227B4BB7
S1130E109847BB1D1A887A4B101CFA2291009847F8
S1130E200B1C9BB2002B03D13E200021754B98472D
S1130E30BB1D1A88724B101CFA22910098470B1C98
S1130E409AB2FA235B009A4203D13E2001216D4BF2
S1130E5098473B1CB73300221A700EE03B1CB73393
S1130E601A783B1C0C3392000021D1503B1CB73341
S1130E701A783B1CB73301321A703B1CB7331B780A
S1130E80292BEBD9604B98473C1CB5343B1C0C33E5
S1130E90181C5E4B9847031C23703B1CB73300227D
S1130EA01A7046E03B1CB7331A783B1C0C33920093
S1130EB0D3581B7B002B20D03B1CB6331B78052B4F
S1130EC01BD83B1CB7331A783B1C0C339200D25806
S1130ED03B1CB433127B1A703B1CB4331B78181CB4
S1130EE04B4B98473B1CB6331A783B1CB633013244
S1130EF01A703E200021434B98473B1CB7331A78A5
S1130F003B1C0C339200D3585B7B002B0AD03B1C58
S1130F10B7331A783B1C0C339200D3585B7B181CF4
S1130F203C4B98473B1CB7331A783B1CB733013210
S1130F301A703A1CB7323B1CB53312781B789A42AC
S1130F40B0D33C1CB5343B1C0C33181C324B9847B3
S1130F50031C23703B1CB73300221A7040E03B1C77
S1130F60B7331A783B1C0C339200D3581B7B002BED
S1130F701AD03B1CB6331B78052B15D83B1CB73352
S1130F801A783B1C0C339200D3581B7B181C234B40
S1130F9098473B1CB6331A783B1CB63301321A709F
S1130FA03E200121174B98473B1CB7331A783B1C52
S1130FB00C339200D3585B7B002B0AD03B1CB73315
S1130FC01A783B1C0C339200D3585B7B181C144BCF
S1130FD098473B1CB7331A783B1CB73301321A705D
S1130FE03A1CB7323B1CB53312781B789A42B6D3FD
S1130FF0BD462FB090BDC046A409002037B3000001
S11310007DB10000050C00006107000079090000B3
S11310103D280000092700007D0A00005D2700002C
S1131020B126000080B582B000AF021CFB1D1A700F
S1131030BD4602B080BDC04680B500AF044B1B78EE
S1131040002B01D0022300E00023181CBD4680BD04
S1131050A869002080B582B000AF7860064B1B7889
S1131060002B01D0022303E07B682F221A600023A7
S1131070181CBD4602B080BDA869002080B500AF31
S11310800023181CBD4680BD80B500AF0123181C89
S1131090BD4680BD90B585B000AF7860BB1C19809B
S11310A07B1C1A707B68302B05D8BB1C1A887B68A4
S11310B0D318302B01D9012336E030E0BB1C1B8848
S11310C07F2B03D8BB1C1B88DBB200E080233A1CB7
S11310D00F3213707B685A1C7A605A02144BD3186F
S11310E0BB603B1C0F331B785B027A1C1178BA6817
S11310F0081C111C1A1C00230E4CA047031C0122BF
S11311005340DBB2002B01D001230DE03B1C0F3315
S11311101B789AB2BB1CB91C09888A1A1A80BB1C9A
S11311201B88002BCAD10023181CBD4605B090BDF6
S1131130A80900201539000080B582B000AF78609E
S11311400A1CBB1C1A807A68BB1C1B88101C191C47
S11311500122034B9847031C181CBD4602B080BDF6
S11311609510000080B582B000AF78600A1CBB1CEB
S11311701A807A68BB1C1B88101C191C0022034BA4
S11311809847031C181CBD4602B080BD9510000092
S113119080B500AF0123181CBD4680BD80B584B066
S11311A000AF021CFB1D1A70FB1D1B78002B07D11E
S11311B0FB1D1A78084B5201D3589847031C00E0D2
S11311C001233A1C0F3213703B1C0F331B78181C7D
S11311D0BD4604B080BDC04664B3000080B584B091
S11311E000AF021C3960FB1D1A70FB1D1B78002B1D
S11311F00AD1FB1D1B780A4A5B01D3185B683A6865
S1131200101C9847031C00E001233A1C0F32137092
S11312103B1C0F331B78181CBD4604B080BDC04670
S113122064B3000080B584B000AF0A1CFB1D011C30
S11312301970BB1D1A70FB1D1B78002B25D1FB1DDB
S11312401B78174A5B01D31808331B68002B0FD097
S1131250FB1D1B78124A5B01D31808331B68BA1DA7
S11312601278101C9847031C5A1E9341DBB20DE000
S1131270BB1D1B785A1E9341DBB201225340DBB2E3
S11312801A1C01231340DBB200E000233A1C0F3286
S113129013703B1C0F331B78181CBD4604B080BD73
S11312A064B3000080B584B000AF021CFB1D1A704B
S11312B0FB1D1B78002B0AD1FB1D1B780A4A5B011E
S11312C0D31808335B689847031C002B01D0012313
S11312D000E000233A1C0F3213703B1C0F331B78C1
S11312E0181CBD4604B080BD64B3000080B584B052
S11312F000AF021CFB1D1A70FB1D1B78002B0AD1CA
S1131300FB1D1B780A4A5B01D31810331B689847EE
S1131310031C002B01D0012300E000233A1C0F32F0
S113132013703B1C0F331B78181CBD4604B080BDE2
S113133064B3000080B582B000AF021CFB1D1A70BC
S1131340FB1D1B78002B01D1034B00E00023181C6C
S1131350BD4602B080BDC04648B3000080B584B02D
S113136000AF3960FB1D011C19703B1D1A80114B25
S11313709847FB1D1B78002B0ED1FB1D1B780E4AD2
S11313805B01D31810335B6839683A1D1288081C56
S1131390111C9847031C00E001233A1C0F32137000
S11313A0064B98473B1C0F331B78181CBD4604B0F2
S11313B080BDC0469D0D000064B30000A50D000073
S11313C080B584B000AF3960FB1D011C19703B1D52
S11313D01A80114B9847FB1D1B78002B0ED1FB1D67
S11313E01B780E4A5B01D31818331B6839683A1D01
S11313F01288081C111C9847031C00E001233A1CA6
S11314000F321370064B98473B1C0F331B78181C84
S1131410BD4604B080BDC046AD0D000064B30000FD
S1131420B50D000080B582B000AFEFF310833B60D0
S11314303B685A425341DBB27B6072B6BFF35F8FA5
S1131440034B00221A707B68181CBD4602B080BD95
S11314508802002080B582B000AF78607B685A1E95
S11314609341DBB2181CBD4602B080BD80B582B08A
S113147000AF78607B68181C064B9847031C002B50
S113148005D0054B01221A70BFF35F8F62B6BD46CB
S113149002B080BD551400008802002090B583B0CE
S11314A000AFBB1D00221A70594B00221A70BB1DDD
S11314B01A78584B52000021D152BB1D1A78564954
S11314C0131C9B009B185B00A1225A54BB1D1A7865
S11314D05149131C9B009B185B00CB1820225A70A7
S11314E0BB1D1A784C49131C9B009B185B00CB183E
S11314F000225A80BB1D1B78002B03D1FB1D002248
S11315001A7003E0FB1D00221A70C046BB1D1A7836
S1131510FB1D1B7899B24048131C9B009B185B0071
S1131520C3180A1C9A80BB1D1A783B49131C9B00E4
S11315309B185B00CB180222DA80BB1D1A7836494F
S1131540131C9B009B185B00CB18083300221A80E5
S1131550BB1D1978314A0B1CDB005B1A985C002117
S113156001409954D1184C78002020403E24644214
S113157020434870D1188C78002020400124204357
S11315808870D318D97800220A40DA70BB1D1A7803
S11315902249131CDB009B1ACB1800221A71BB1DB5
S11315A01A781E49131CDB009B1ACB1800225A71AF
S11315B0BB1D1A781949131CDB009B1ACB1808228F
S11315C09A71BB1D1A78131CDB009B1A134A9B18D3
S11315D0BA1D1278101C191C114B9847BB1D1B789F
S11315E0181C104B9847031C01225340DBB2002BFC
S11315F001D0002307E0064B1B78DBB20133DAB2DB
S1131600034B1A700123181CBD4603B090BDC0469D
S1131610C8690020B8690020BC690020AC690020BA
S11316201DAF0000E9AA000080B582B000AFFB1D29
S113163000221A70304B00221A70FB1D1B782F4AAF
S11316400021D154FB1D1B782D4A0021D154FB1DD0
S11316501B782C4A0021D154FB1D1A782A4B920086
S11316600021D152FB1D1B78274A9B00D31802335B
S113167000221A80FB1D1A78244B52000021D152FB
S1131680FB1D1B78181C224B9847FB1D1B78214A15
S11316900021D154FB1D1B781F4A0021D154FB1D8E
S11316A01A781E4B92000021D152FB1D1A781C4B54
S11316B052000021D152FB1D1B78181C194B98476E
S11316C0031C01225340DBB2002B01D000230FE0A6
S11316D0094B1B78DBB20133DAB2074B1A70064BA5
S11316E01B78DBB2012B02D10F4B01221A700123AC
S11316F0181CBD4602B080BDC9690020E86E0020F8
S1131700EC6E0020E06E0020DC6E0020E46E002011
S11317103D1E0000586C0020506C00204C6C0020D2
S1131720546C0020651B0000CA69002080B500AF1E
S1131730044B1B78DBB2013BDAB2024B1A70BD4694
S113174080BDC046C869002080B582B000AF0B4B95
S11317501B78DBB2013BDAB2084B1A70FB1D074A57
S113176012781A70FB1D1B78181C054B9847054B03
S113177000221A70BD4602B080BDC046C96900206F
S113178019AB0000CA69002090B583B000AFFC1DFE
S1131790344B9847031C2370334B1B78DBB25BB28A
S11317A0002B1EDA304B1B781A1C60231340202BAD
S11317B017D12D4B5B78212B13D12B4BDB88072BB7
S11317C001D0002349E0FB1D1A78131CDB009B1A8F
S11317D0264A9A18244B9A60234B07229A810123A4
S11317E03BE0214B1B78DBB25BB2002B34DB1E4B9E
S11317F01B781A1C60231340202B2DD11A4B5B78C5
S1131800202B02D0222B17D026E0174BDB88072B86
S113181001D0002321E0144B154A1A61FB1D1A78EC
S1131820131CDB009B1A114A9A180F4B9A600E4B3B
S113183007229A81012310E00B4B5B881A1C0123B9
S113184013405A1E9341DBB2FA1D1278101C191C66
S1131850084B9847012300E00023181CBD4603B041
S113186090BDC046AD18000030730020AC69002064
S1131870E118000045AB000080B500AF0023181C40
S1131880BD4680BD80B500AF0023181CBD4680BD99
S113189080B500AF034B1B78181C034B9847BD461B
S11318A080BDC046F06E00203D1E000080B582B0B1
S11318B000AF0A4B9B881A1CFF23134003D1FB1D66
S11318C000221A7003E0FB1D00221A70C046FB1DA3
S11318D01B78181CBD4602B080BDC0463073002082
S11318E090B583B000AFFC1D094B9847031C2370CF
S11318F0FB1D1A78131CDB009B1A064A9B18FA1D61
S11319001278101C191C044B9847BD4603B090BDB7
S1131910AD180000AC6900201DAF000080B584B094
S113192000AFFB1D1870BB1D19703B1D1A803B1CBA
S11319300E3300221A70264B9847031CBB60BB1D54
S11319401B78002B11D03B1C0E331A783B1C0E3332
S11319501978204B4900CB5A99B23B1D1B880B4385
S113196099B21C4B5200D15212E03B1C0E331A7830
S11319703B1C0E331978174B4900CB5A9BB2391DC7
S11319800988C94389B20B4099B2124B5200D15213
S1131990BB68181C104B98473B1C0E331B78002B5C
S11319A004D13B1C0F3387221A7004E03B1C0F3315
S11319B087221A70C0463B1C0E331A783B1C0F3327
S11319C01B78101C191C054B9847BD4604B080BDFC
S11319D025140000B86900206D140000E11900000E
S11319E0B0B586B002AF0A1CFB1D011C1970BB1DEB
S11319F01A703B1C0F3300221A703B1C0F331B78E8
S1131A00254AD35C01225340DBB2002B40D03B1C5F
S1131A100F331A78214B5200D35A99B23B1C0F331F
S1131A201A781F48131C9B009B185B00C3180833CB
S1131A301B8899422CD03B1C0F331A783B1C0F3364
S1131A401978164B4900CB5A99B21548131C9B00C0
S1131A509B185B00C31808330A1C1A803B1C0F3305
S1131A601C783B1C0F331A78131C9B009B185B00DB
S1131A700B4A9B18BA1D12780A490091101C0021C8
S1131A801A1C0A23084DA847031C1A1C024B1A559A
S1131A90BD4604B0B0BDC046B4690020B86900209A
S1131AA0BC690020AD1A0000B57B000080B584B08D
S1131AB000AF3960FB1D011C1970BB1D1A70BB1DE2
S1131AC01B78872B04D13B1C0F3300221A7004E0CF
S1131AD03B1C0F3300221A70C0463B1C0F331B788B
S1131AE01C4A0021D1543B1C0F331A783B1C0F3382
S1131AF01978194B4900CB5A9BB27C218B4399B27C
S1131B00154B5200D1523B1C0F331A783B1C0F3338
S1131B10197812480B1C9B005B185B00C318083330
S1131B201B887C218B4399B20C48131C9B009B1887
S1131B305B00C31808330A1C1A803B1C0F331A7845
S1131B40BB1D1B78101C191C054B9847BD4604B0DF
S1131B5080BDC046B4690020B8690020BC6900207B
S1131B60E119000090B589B002AF021CFB1D1A7088
S1131B703B1C163300221A70454B9847031C3B61EB
S1131B803B1C16331A783B1C0F3342498A5C1A708B
S1131B903B1C16331B78404AD35CDBB2002B13D1B9
S1131BA03B1C16331A783D4B5200D35A9AB23B1C55
S1131BB0163318783B1C0F331978394B4000411801
S1131BC04900CB5A9A4205D23B69181C354B9847B9
S1131BD0002358E03B1C16331A78304B5200002186
S1131BE0D1523B1C16331B783A1C0F3212785142E7
S1131BF04A41D2B2111C274AD1543B1C16331B78DC
S1131C00254A0121D1543B69181C264B98473B1C9B
S1131C1016331B78181C244B9847031C002B05D043
S1131C203B1C16331B78181C204B98473B1C16335F
S1131C301B78002B04D13B1C173305221A7004E0D7
S1131C403B1C173305221A70C0463B1C1633197807
S1131C503B1C0F331B781A1C9200D21893011A1CD8
S1131C600B1C9B005B18DB01D218114BD2183B1CD8
S1131C7017331978A0235B000E480090081C01213B
S1131C800D4CA047031C181CBD4607B090BDC046B0
S1131C9025140000506C0020586C0020546C002067
S1131CA04C6C00206D14000025210000C9AE00001A
S1131CB0CC690020BD1C0000B57B000090B587B046
S1131CC002AF3960FB1D011C1970BB1D1A70BB1DCE
S1131CD01B78052B04D13B1C0F3300221A7004E03F
S1131CE03B1C0F3300221A70C046FB1D1B78002BCF
S1131CF000D044E03B1C0F331B78224AD35CDBB298
S1131D005A425341DAB23B1C0E331A703B68002B23
S1131D101CD13B1C0F3319783B1C0E331B781A1C47
S1131D209200D21893011A1C0B1C9B005B18DB0158
S1131D30D218154BD218BB1D1978A0235B00134889
S1131D400090081C0121124CA04718E03B1C0F33E3
S1131D5018783B1C0E331A783B6899B20D4B40003F
S1131D6082185200D1523B1C0F331B780A4A0021BF
S1131D70D1543B1C0F331B78181C084B9847BD46A5
S1131D8005B090BD506C0020CC690020BD1C000043
S1131D90B57B00004C6C0020586C0020651B0000D3
S1131DA080B584B000AF3960FB1D011C1970BB1DE8
S1131DB01A70BB1D1B78862B04D13B1C0F330022E9
S1131DC01A7004E03B1C0F3300221A70C046FB1D3E
S1131DD01B78002B00D024E03B1C0F3319783B1CEC
S1131DE00F331B78104AD35CDBB25A425341DBB247
S1131DF01A1C0E4B49008A1852000021D1523B1C78
S1131E000F331B780A4A0021D1543B1C0F331B7833
S1131E10084A0021D1543B1C0F331B78181C064B75
S1131E209847BD4604B080BDE06E0020DC6E002003
S1131E30EC6E0020E86E00203D1E000090B589B0D5
S1131E4002AF021CFB1D1A703B1C153300221A70D2
S1131E503B1C15331B787E4AD35CDBB2002B00D0CD
S1131E60F3E07C4B9847031C002B0BD03B1C153331
S1131E701A78794B5200D45A784B9847031C9C42E9
S1131E800CD1E2E03B1C15331A78734B5200D45A40
S1131E90734B9847031C9C4200D1D6E0714B984782
S1131EA0031C3B613B1C15331A783B1C17336E49EA
S1131EB08A5C1A703B1C153319783B1C17331A784B
S1131EC06A4B49008A185200D35A002B20D1684B20
S1131ED01B8801339AB2664B1A805E4B9847031CE9
S1131EE001225340DBB2002B03D0614B1B88632BD0
S1131EF009D9584B9847031C002B09D05C4B1A880E
S1131F005C4B9A4204D83B69181C5B4B98479CE095
S1131F10574B00221A803B1C15331B78574AD35C5D
S1131F20DBB201225340DBB2002B0CD03B1C153337
S1131F301B783A1C1732127851424A41D2B2111C12
S1131F40494AD15408E03B1C17331B785A42534189
S1131F50DAB23B1C17331A703B1C15331B783C4A0E
S1131F600121D1543B69181C434B98473B1C153342
S1131F7019783B1C17331A783C4B49008A185200D5
S1131F80D25A3B1C0F33413AFF3A511E8A411A7010
S1131F903B1C0F331B78002B1AD02E4B9847031C85
S1131FA0002B0AD03B1C15331C782C4B9847031C80
S1131FB0191C294B6200D15211E03B1C15331C78CB
S1131FC0274B9847031C191C234B6200D15206E08F
S1131FD03B1C15331A78204B52000021D1523B1C74
S1131FE015331B78002B04D13B1C163386221A7040
S1131FF004E03B1C163386221A70C0463B1C153382
S113200019783B1C17331B781A1C9200D2189301C1
S11320101A1C0B1C9B005B18DB01D218184BD2183E
S11320203B1C153318783B1C173319780F4B4000B1
S113203041184900CB5A391C16310878391C0F3124
S11320400978104C0094104CA047BD4607B090BDD1
S1132050E86E002065770000E46E00208D770000B4
S11320607177000025140000E06E0020DC6E002073
S1132070F26E00201F0300006D140000EC6E0020BF
S11320805C6C0020A11D0000B57B000080B500AF92
S1132090002001214022024B9847BD4680BDC04626
S11320A01D19000080B586B000AF021CFB1D1A701C
S11320B03B1C173300221A70154B9847031C3B61D5
S11320C03B1C173319783B1C0E33124A49008A5AB9
S11320D01A803B1C173319783B1C17331B780E4AA4
S11320E0D35CDBB21A1C0D4B49008A185200D35A38
S11320F01A1C3B1C0E331B88D31ABB603B69181C8B
S1132100074B9847BB68181CBD4606B080BDC04647
S113211025140000546C0020506C00204C6C0020EE
S11321206D14000080B582B000AF021CFB1D1A7054
S1132130FB1D1B78181C054B9847031C5A1E934122
S1132140DBB2181CBD4602B080BDC046A52000000D
S113215080B500AF0020034B9847031C181CBD46F4
S113216080BDC0462521000090B587B000AF021C99
S1132170FB1D1A7000237B613B1C123300221A7072
S11321803B1C12331A784149131CDB009B1ACB18F1
S11321909A793B1C1333093A51424A411A703C4B19
S11321A09847031CFB603B1C123319783B1C0A3311
S11321B0384A49008A5A1A803B1C12331A783B1C4D
S11321C0093335498A5C1A70FB68181C334B9847ED
S11321D0C0463B1C123319783B1C09331A78304B28
S11321E049008A185200D35A3A1C0A3212889A4279
S11321F010D32C4B1B78DBB201225340DBB2002BF3
S113220001D000233EE03B1C13333A1C13321278F6
S11322101A70C4E73B1C123319783B1C09331B7832
S11322203A1C0A321088204C1A1C9200D2189301CE
S11322301A1C0B1C9B005B18DB01D318E3181B5CF6
S11322407A6913437B613B1C12331A783B1C0A33B3
S11322501B88013399B20F4B5200D1523B1C1233ED
S11322601B78181C114B98473B1C13331B78002B0D
S113227007D03B1C133300221A707B691B027B615D
S11322808DE77B69181CBD4607B090BDAC69002082
S113229025140000546C0020506C00206D140000C4
S11322A04C6C0020CA690020CC690020651B00002A
S11322B080B500AF0020034B9847031C181CBD4693
S11322C080BDC0466921000080B588B000AF021C03
S11322D0FB1D1A703B1C1B3300221A70334B9847AA
S11322E0031C7B613B1C1B331A783B1C13333049A2
S11322F08A5C1A703B1C1B3319783B1C13331A7805
S11323002C4B49008A185200D35AFB613B1C1B33E7
S113231019783B1C13331B785A425341DBB21A1C05
S1132320244B49008A185200D35AFB60FA69A0234F
S11323305B009A422CD13B1C1B331B781E4AD35C96
S1132340DBB201225340DBB2002B21D03B1C1B33F8
S11323501B781A4AD35CDBB201225340DBB2002B58
S113236016D03B1C1B331B78144A0121D1543B1C4F
S11323701B331B783A1C1332127851424A41D2B2B1
S1132380111C0B4AD1540023FB61A0235B00FB60AA
S1132390FB69A0225200D31ABB607B69181C084B4E
S11323A09847BB68181CBD4608B080BD25140000C2
S11323B0E06E0020DC6E0020E86E0020EC6E002051
S11323C06D14000080B582B000AF021CFB1D1A70B2
S11323D0FB1D1B78181C054B9847031C5A1E934180
S11323E0DBB2181CBD4602B080BDC046C922000045
S11323F080B500AF0020034B9847031C181CBD4652
S113240080BDC046C5230000F0B587B000AF021CF4
S11324103960FB1D1A703B1C163300221A703B1CDA
S113242016331A783A49131CDB009B1ACB189A7995
S11324303B1C1733093A51424A411A703B1C16336C
S11324401B78181C334B9847031C01225340DBB202
S1132450002B10D0304B1B78DBB201225340DBB28F
S1132460002B01D000234EE03B1C17333A1C1732DB
S113247012781A70E2E7294B9847031C3B613B1C16
S113248016331A783B1C0F3325498A5C1A703B1C9F
S1132490163319783B1C0F331B783A1C1632147808
S11324A03A1C0F3210781F4A65002D186D00AA5A85
S11324B0551CAEB21B4D640020184000341C44531C
S11324C0101C3A68D4B2184D1A1C9200D218930109
S11324D01A1C0B1C9B005B18DB01D318EB18221C85
S11324E01A543B69181C114B98473B1C17331B7833
S11324F0002B07D03B1C173300221A703B681B12B9
S11325003B609BE70123181CBD4607B0F0BDC046E5
S1132510AC690020C5230000CA690020251400000E
S1132520E06E0020DC6E00205C6C00206D14000066
S113253080B582B000AF78607B680020191C034B23
S11325409847031C181CBD4602B080BD0924000036
S113255080B582B000AFEFF310833B603B685A4212
S11325605341DBB27B6072B6BFF35F8F034B002233
S11325701A707B68181CBD4602B080BD880200201A
S113258080B582B000AF78607B685A1E9341DBB29D
S1132590181CBD4602B080BD80B582B000AF786023
S11325A07B68181C064B9847031C002B05D0054B71
S11325B001221A70BFF35F8F62B6BD4602B080BDC0
S11325C0812500008802002080B500AF0B4B00225B
S11325D01A700B4B00221A700A4B00221A700A4B15
S11325E0181C00210822094B9847094B00221A7035
S11325F0084B9847031C181CBD4680BDF46E002090
S1132600F86E00200C6F0020046F002037B3000028
S1132610006F0020BDAA000080B500AF014B9847B1
S1132620BD4680BDD5AA000098B500AF0448054951
S1132630054A064B064CA047031C181CBD4698BD12
S1132640F46E0020F86E0020400100206126000096
S11326504D2A000080B500AF0023181CBD4680BD84
S113266080B500AF0F4B5B881B0A9BB2022B15D1C0
S11326700C4B5A88FF2313409BB2002B0ED1094BFD
S1132680DB88012B0AD1074B074A9A60054B074A9E
S11326901A61044B01229A81012300E00023181CD3
S11326A0BD4680BD30730020FC6E00208D290000E3
S11326B080B584B000AF021CFB1D1A700D4B984707
S11326C0031CFB600C4B1B78FA1D1278D243D2B268
S11326D01340DAB2084B1A70084B01221A70084BE7
S11326E09847FB68181C074B98470123181CBD46E4
S11326F004B080BD51250000046F0020006F00204D
S1132700F52800009925000080B584B000AF021CB4
S1132710FB1D1A700C4B9847031CFB600B4B1A787B
S1132720FB1D1B781343DAB2084B1A70084B0122C5
S11327301A70084B9847FB68181C074B98470123ED
S1132740181CBD4604B080BD51250000046F002054
S1132750006F0020F52800009925000080B584B0A2
S113276000AF021CFB1D1A702F4B9847031CBB6063
S11327703B1C0F3302221A701DE03B1C0F331B78E5
S11327802A4AD35C002B05D1BB68181C284B9847F8
S1132790012345E03B1C0F331B78244AD35CFA1D0C
S11327A012789A4200D10BE03B1C0F331A783B1C81
S11327B00F3301321A703B1C0F331B78072BDCD903
S11327C03B1C0F331B78082B05D1BB68181C184B16
S11327D09847012324E011E03B1C0F331B783A1C7B
S11327E00F32127801321149895C104AD1543B1CD2
S11327F00F331A783B1C0F3301321A703B1C0F3312
S11328001B78062BE8D9094B0022DA71094B012207
S11328101A70094B9847BB68181C054B984701234D
S1132820181CBD4604B080BD51250000046F002073
S113283099250000006F0020F528000080B584B0C1
S113284000AF021CFB1D1A70254B9847031CBB608C
S11328503B1C0F3302221A701DE03B1C0F331B7804
S1132860204AD35C002B00D11AE03B1C0F331B78A9
S11328701C4AD35CFA1D12789A4205D1BB68181C15
S1132880194B9847012327E03B1C0F331A783B1C54
S11328900F3301321A703B1C0F331B78072BDCD922
S11328A03B1C0F331B78082B05D1BB68181C0E4B3F
S11328B09847002310E03B1C0F331B78094AF91D8D
S11328C00978D154094B01221A70094B9847BB6807
S11328D0181C054B98470123181CBD4604B080BD45
S11328E051250000046F002099250000006F00208E
S11328F0F528000090B583B002AF104B1B78002B75
S113290001D0002315E00E4B0E4A03CA03C30E4B3D
S113291000221A700A4B0D4A0092842000211A1CCE
S113292008230B4CA047031C1A1C044B1A70034BBE
S11329301B78181CBD4601B090BDC0460C6F00202A
S1132940106F0020046F0020006F00205529000044
S1132950B57B000080B582B000AF3960FB1D011C5F
S11329601970BB1D1A70064B00221A70054B1B7898
S1132970002B01D0044B9847BD4602B080BDC04631
S11329800C6F0020006F0020F528000080B500AF18
S1132990034B1B78181C034B9847BD4680BDC046AB
S11329A0FC6E00202510000080B500AF0B4B002208
S11329B01A700B4B00221A700A4B00221A700A4B31
S11329C0181C00210422094B9847094B00221A7055
S11329D0084B9847031C181CBD4680BD186F002087
S11329E01C6F0020286F0020246F002037B30000E4
S11329F0206F002091AA000080B500AF014B9847DA
S1132A00BD4680BDA9AA000098B500AF0448054999
S1132A10054A064B064CA047031C181CBD4698BD2E
S1132A20186F00201C6F002090010020412A000034
S1132A304D2A000080B500AF0023181CBD4680BDA0
S1132A4080B500AF0023181CBD4680BD80B584B09E
S1132A5000AFF860B9607A603B60364B1B78DBB23C
S1132A605BB2002B32DA334B1B781A1C6023134001
S1132A7009D1304B5B78062B05D17B68181C2E4B93
S1132A809847031C52E02B4B1B781A1C60231340FD
S1132A90202B1BD1274B5B78022B07D0032B0DD0A7
S1132AA0012B13D13B689847031C3FE0214BFA6884
S1132AB09A60204B01229A81012337E01D4BBA68AA
S1132AC09A601C4B01229A8101232FE0194B1B7839
S1132AD0DBB25BB2002B28DB164B1B781A1C60237D
S1132AE01340202B21D1134B5B780A2B07D00B2BDF
S1132AF00ED0092B19D13B689847031C16E00D4BE7
S1132B005B881B0A9BB2DAB2FB681A7001230DE0E2
S1132B10084BDB88002B01D0002307E0054B5B88C2
S1132B20DAB2BB681A70012300E00023181CBD460A
S1132B3004B080BD307300203D2B000080B584B00C
S1132B4000AF7860224B9847031C0933FB60FB6895
S1132B505B78212B01D0002336E01E4B5B881B0AD7
S1132B609BB2DBB2212B10D11A4BFA689A60FB6836
S1132B701B78184AD28898B291B2884200D9131CA3
S1132B809AB2144B9A8101231EE0FB689A79114B87
S1132B905B881B0A9BB2DBB29A4214D10D4B7A6854
S1132BA09A60FB68DA791B7A1B0213439BB2094AC9
S1132BB0D28898B291B2884200D9131C9AB2054BBC
S1132BC09A81012300E00023181CBD4604B080BD97
S1132BD0113A00003073002080B582B000AF224B60
S1132BE000221A70214B00221A70214B01221A7004
S1132BF0204B01221A70204B9847031C1A1C1F4BB0
S1132C001A701E4B1B78002B01D1002327E01B4BAD
S1132C101B78013BDAB2194B1A70194B9847031C05
S1132C2001225340DBB2002B01D0002317E0FB1D2F
S1132C3000221A700AE0FB1D1B78181C0021114B9E
S1132C409847FB1D1A78FB1D01321A700B4B1B7839
S1132C50FA1D12789A42EED90B4B98470123181C9F
S1132C60BD4602B080BDC046656F0020646F002081
S1132C70E8010020E9010020911100004C6F0020C0
S1132C8065AA000025120000012E000080B500AFE7
S1132C90064B00221A70064B01221A70054B0122C2
S1132CA01A70054B9847BD4680BDC046656F00202D
S1132CB0E8010020E90100207DAA000080B500AFF2
S1132CC02A4B1B78DBB25BB2002B1EDA274B1B7836
S1132CD01A1C60231340202B17D1244B5B78FE2B46
S1132CE013D1224BDB88012B01D000233BE01F4B87
S1132CF05B88002B01D0002335E01C4B1C4A9A60F2
S1132D001A4B01229A8101232DE0184B1B78DBB268
S1132D105BB2002B26DB154B1B781A1C6023134077
S1132D20202B1FD1114B5B78FF2B1BD10F4BDB8862
S1132D30002B01D0002316E00C4B5B88002B01D044
S1132D40002310E00B4B00221A700B4B00221A7068
S1132D5002200A4B98478120084B9847084B984714
S1132D60012300E00023181CBD4680BD3073002001
S1132D704C6F0020646F0020656F0020F576000022
S1132D80012E000080B500AF0023181CBD4680BD95
S1132D9080B500AF084B1B7801225340DBB2002BF7
S1132DA000D007E00220054B9847054B0220191C70
S1132DB0044B9847BD4680BD646F0020097A00002B
S1132DC0912D0000D97A000080B500AF084B1B7824
S1132DD001225340DBB2002B00D007E08120054BD9
S1132DE09847054B8120191C044B9847BD4680BD6C
S1132DF0646F0020097A0000C92D0000D97A000010
S1132E0090B583B002AF0B4B0B4A00920220012114
S1132E101A1C1F23094CA047031C01225340DBB298
S1132E20002B04D0064B0220191C064B9847BD46C4
S1132E3001B090BD2C6F0020492E0000B57B00002E
S1132E40012E0000D97A000080B582B000AF39604D
S1132E50FB1D011C1970BB1D1A70FB1D1B78002B78
S1132E6000D05AE03B681F2B04D12D4B1A682D4B20
S1132E709A4207D02C4B01221A702C4B98472C4BAA
S1132E8098474AE0264B5A7B0F231340DAB2244B6F
S1132E905A73234B5A7B274B1B789A4204D9264BEF
S1132EA09847264B984738E01D4B9A68244B9A6004
S1132EB01B4BDB7B5A2B2BD89A00224BD3181B6855
S1132EC09F46214B984728E0204B984725E0002057
S1132ED01F4B984721E001201D4B98471DE01D4BD7
S1132EE098471AE01C4B984717E01C4B984714E08E
S1132EF01B4B984711E01B4B9847104B98470CE02D
S1132F000120194B984708E00020174B984704E02C
S1132F10164B9847094B9847C046BD4602B080BD42
S1132F202C6F002055534243646F0020912D000004
S1132F30C92D00004C6F00203532000055300000D0
S1132F40D801002084B300006D320000C9320000B3
S1132F506134000039340000853600001136000069
S1132F60D5350000AD31000021370000513200009A
S1132F7080B582B000AF78600A1CFB1C1A700D4B40
S1132F801A7BFB1C1B785340DBB2DBB25BB2002B19
S1132F9004DB094B9A687B689A4205D2074B984731
S1132FA0074B9847002300E00123181CBD4602B0DC
S1132FB080BDC0462C6F0020D801002035320000AF
S1132FC05530000090B585B002AF78600A1CFB1C38
S1132FD01A70FB1C1B787A68094900918120012131
S1132FE0084CA047031C01225340DBB2002B03D042
S1132FF0054B9847054B9847BD4603B090BDC04666
S113300011300000B57B0000013200005530000093
S113301080B582B000AF3960FB1D011C1970BB1D67
S11330201A70FB1D1B78002B00D009E0064B984753
S1133030064B9A683B68D21A044B9A60044B984733
S1133040BD4602B080BDC046AD310000D8010020AD
S11330505530000080B500AF0E4B9B68002B0CD0A0
S11330600D4B1B7BDBB25BB2002B03DA81200B4BD5
S1133070984702E00220094B9847074B5A68054BD2
S11330805A60044B9A68034B9A60054B9847BD46B7
S113309080BDC046D80100202C6F0020097A0000B2
S11330A0A530000090B583B002AF0B4B0B4A0092E1
S11330B0812000211A1C0D23094CA047031C012266
S11330C05340DBB2002B04D0064B8120191C064B65
S11330D09847BD4601B090BDD8010020ED300000F6
S11330E0B57B0000A5300000D97A000080B582B01D
S11330F000AF3960FB1D011C1970BB1D1A70024B17
S11331009847BD4602B080BD012E000080B500AFD7
S1133110064B181C00211222054B9847034BF02242
S11331201A70024B0A22DA71BD4680BD506F00202E
S113313037B3000080B582B000AF3A60FB1D021CBB
S11331401A703B1D0A1C1A80154B9847154B012217
S11331501A73154BFA1D12789A703B681B0EDAB27B
S1133160114BDA703B681B0CDAB20F4B1A713B68D7
S11331701B0ADAB20C4B5A713B68DAB20A4B9A71E9
S11331803B1D1B881B0A9BB2DAB2074B1A733B1D0B
S11331901B88DAB2044B5A73BD4602B080BDC046E8
S11331A00D310000D8010020506F002080B500AF21
S11331B0034B9847034B00221A73BD4680BDC0469B
S11331C00D310000D801002080B500AFE8239B0139
S11331D00220191C0022024B9847BD4680BDC04600
S11331E03531000080B500AFA0239B010620191CD7
S11331F00022024B9847BD4680BDC04635310000D1
S113320080B500AF042000210022024B9847BD4640
S113321080BDC0463531000080B500AF9C239B01C2
S11332200720191C0022024B9847BD4680BDC046AA
S11332303531000080B500AF90239B010520191C97
S11332400022024B9847BD4680BDC0463531000080
S113325080B500AF80239B010520191C0022024B7E
S11332609847BD4680BDC0463531000080B582B068
S113327000AFFB1D104AD27C1A70FB1D1B78122B69
S113328002D9FB1D12221A70FB1D1B78181C802109
S11332900A4B9847031C01225340DBB2002B00D099
S11332A006E0074AFB1D1B78101C191C054B9847A8
S11332B0BD4602B080BDC0462C6F0020712F0000B7
S11332C0506F0020C52F000080B582B000AFFB1DF9
S11332D03C4AD27C1A70FB1D1B78242B02D9FB1D9F
S11332E024221A70FB1D1B78181C8021364B98472A
S11332F0031C01225340DBB2002B00D05EE0314BB3
S11333001B7C1A1C0323134003D12E4B5B7C002B24
S113331004D02E4B98472E4B98474FE0294B5B7BAC
S1133320181C2C4B9847031C002B01D0802300E071
S11333300023294A5370234B5B7B181C274B984767
S1133340031C0133244A111C10311A1C1023081CBD
S1133350111C1A1C224B9847BB1D00221A7012E044
S1133360BB1D1B781C4AD3181B7C002B0FD0BB1D24
S11333701B78194AD3181B7C222B08D0BB1D1A7842
S1133380BB1D01321A70BB1D1B78102BE8D10AE05B
S1133390BB1D1B78104AD31820221A74BB1D1A783F
S11333A0BB1D01321A70BB1D1B78102BF0D10A4AC9
S11333B0FB1D1B78101C191C0A4B9847BD4602B014
S11333C080BDC0462C6F0020712F000035320000F4
S11333D055300000ED120000EC0100203513000010
S11333E025B30000C52F000080B500AF0D4B5B7BFB
S11333F0181C0D4B9847031C022B08D0032B03D039
S1133400002B07D1012309E0084B984705E0084B3E
S1133410984702E0074B9847C0460023181CBD4656
S113342080BDC0462C6F00209D110000E5310000D6
S1133430C93100000132000080B500AF054B984748
S1133440031C002B01D0044B9847044B9847BD46FE
S113345080BDC046E9330000AD31000055300000A6
S113346080B586B000AF021CFB1D1A70514B181CAE
S113347000211422504B9847FB1D1B78002B0BD0C6
S11334803B1C16334D4AD27D1A704D4B3B613B1C9D
S1133490173308221A700AE03B1C1633474AD27CC1
S11334A01A70484B3B613B1C173304221A70434B80
S11334B0597C3B1C0F333F220A401A703B1C0F33CC
S11334C01B781C2B04D03B1C0F331B783F2B0FD1D4
S11334D03B691C221A703B690A225A703B69052217
S11334E0DA703B1C17333A1C173212780C321A70FC
S11334F03A1C16323B1C173312781B789A4205D9B2
S11335003B1C16333A1C173212781A703B1C1633C4
S11335101B78181C80212C4B9847031C0122534014
S1133520DBB2002B00D041E0244B5B7B181C274B03
S11335309847031C002B01D0802300E000233A1C91
S11335400E321370FB1D1B78002B1BD03B1C173352
S11335501B789BB2023B9BB21B0A9BB29AB23B1CE8
S113356017331B789BB2023B9BB21B029BB21343E3
S11335709BB29AB20F4B1A800E4B3A1C0E32127841
S1133580DA700BE03B1C17331B78013BDAB2094BB2
S11335901A70084B3A1C0E3212789A70054A3B1C7A
S11335A016331B78101C191C094B9847BD4606B0EE
S11335B080BDC046706F002037B300002C6F002020
S11335C0786F0020746F0020712F0000A512000096
S11335D0C52F000080B582B000AFFB1D084AD27C25
S11335E01A70FB1D1B78002B02D1064B984701E093
S11335F0054B9847054B9847BD4602B080BDC04671
S11336002C6F0020AD310000353200005530000031
S113361080B582B000AF174BDB7C1A1C01231A4023
S1133620FB1D511E8A411A70124BDB7C1A1C0223AB
S11336301A40BB1D511E8A411A70BB1D1B78002BFA
S113364011D00C4B5A7BFB1D1B78591E8B41DBB2EE
S113365001214B40DBB2191C01230B40DBB2101CCF
S1133660191C054B9847054B9847054B9847BD4691
S113367002B080BD2C6F002025120000AD31000087
S11336805530000080B500AF082080211B4B9847BF
S1133690031C01225340DBB2002B00D02CE0184B5A
S11336A05A7B184B101C191C174B9847031C022BF0
S11336B009D0032B02D0002B0FD009E0134B9847FD
S11336C0134B984718E0134B9847114B984713E056
S11336D0114B98470E4B98470EE0C046094B802289
S11336E092025A60074B1B681ABA064B1A60054BC4
S11336F0181C0821094B9847BD4680BD712F000056
S11337002C6F0020846F0020DD110000E5310000E3
S113371055300000C931000001320000C52F0000FF
S113372080B584B000AF021CFB1D1A70FB1D1B7812
S113373001225340DBB2002B0CD0234B5B7B181CC3
S1133740224B9847031C002B04D0214B9847214B54
S1133750984735E0204B1C4A527C1A701F4B1A4A7A
S1133760927C1A701E4B184AD27C1A701D4B164A52
S1133770127D1A701C4B144A927D1A701B4B124A0C
S1133780D27D1A70194B1B885B02FB60FB1D1B78F2
S1133790002B01D0802300E00023FA68101C191CC0
S11337A0134B9847031C01225340DBB2002B00D07B
S11337B006E0104BFA1D12781A700F4B01221A7092
S11337C0BD4604B080BDC0462C6F0020A512000089
S11337D019320000553000006B6F00206A6F002022
S11337E0696F0020686F00206D6F00206C6F0020EF
S11337F0712F0000666F0020656F002090B583B0C4
S113380000AF2A4B1B7801225340DBB2002B01D0BE
S1133810002347E0254B00221A70254B00221A7022
S1133820244B1B78002B0ED0234B597B234B1A6857
S1133830234B1B88FC1D081C111C1A1C214B984788
S1133840031C23700DE01C4B597B1C4B1A681C4B4A
S11338501B88FC1D081C111C1A1C1B4B9847031CBD
S11338602370134B1B78DBB2002B04D0104B0022C7
S11338701A70012316E0FB1D1B78022B09D0032BC1
S113388004D0002B08D1114B984708E0104B9847FF
S113389005E0104B984702E00F4B9847C0460F4B8A
S11338A098470123181CBD4603B090BD656F0020E6
S11338B0E9010020666F00202C6F0020686F002053
S11338C06C6F00205D130000C1130000AD310000D7
S11338D0E5310000C931000001320000553000001C
S11338E080B582B000AF3960FB1D011C1970BB1D8F
S11338F01A70FB1D1B785A1E9341DAB2034B1A70DF
S1133900034B01221A70BD4602B080BD3571002000
S1133910E8010020B0B586B002AFB9607A603B60C0
S11339203B1C0F33021C1A70304B1B78DBB2012294
S11339305340DBB2002B01D0002352E02B4B00227A
S11339401A703B1C0F331B78002B01D0812300E03D
S113395002233A68002A01D03A6800E0244ABD688C
S11339607C680092181C00212A1C231C214CA047AF
S1133970031C01225340DBB2002B04D01B4B012259
S11339801A7000232DE03B68002B23D1C046174B4F
S11339901B78DBB201225340DBB2002BF7D1164B6C
S11339A01B78DBB2002B01D000231AE0134B9A687A
S11339B07B68D21A114B9A600F4B1B78DBB25A1EEC
S11339C09341DBB201225340DBB21A1C01231340A2
S11339D0DBB206E0094B9A687B68D21A074B9A60FF
S11339E00123181CBD4604B0B0BDC046E801002048
S11339F0E1380000B57B000035710020D8010020BB
S1133A0080B500AF014B181CBD4680BDF0B400006A
S1133A1080B500AF024B1B68181CBD4680BDC04674
S1133A209C6F002080B500AF074B1B681A68064BDB
S1133A301B681B689978DB781B020B439BB2D31875
S1133A40181CBD4680BDC046986F002080B584B068
S1133A5000AF78600A1CFB1C1A70124B9847031CB9
S1133A60FB607B681B787A68D3187B6011E07B6805
S1133A705B78042B00D110E07B685B78FA1C127829
S1133A809A4201D17B6809E07B681B787A68D31875
S1133A907B60FA687B689A42E9D80023181CBD460B
S1133AA004B080BD253A000080B584B000AF0A1C84
S1133AB0FB1D011C1970BB1D1A70204B1B78002BB9
S1133AC001D1002336E01E4B1B681B681B79FA1DCD
S1133AD012789A4201D300232CE0194B1B681A6810
S1133AE0184B1A60184B9847031CFB601CE0154BDD
S1133AF01B685B78042B0FD1124B1B689B78FA1D53
S1133B0012789A4208D10F4B1B68DB78BA1D1278E1
S1133B109A4201D101230DE00A4B1A68094B1B6834
S1133B201B78D218074B1A60064B1B68FA689A4236
S1133B30DDD80023181CBD4604B080BD946F00205E
S1133B40986F00209C6F0020253A000080B584B057
S1133B5000AF021CFB1D1A70FB1D1B78181C0021F2
S1133B60204B9847031C01225340DBB2002B01D0A9
S1133B70002333E01C4B1B685A68FB1D1B789B0019
S1133B80D3181B68BB60BB68DB689847031CFA1D2D
S1133B901278101C191C134B9847031C0122534024
S1133BA0DBB2002B01D0002318E0104B1B68FB6034
S1133BB0FB68181C05210E4B9847031CFB60FB682F
S1133BC0002B05D1C046BB685B689847012305E01C
S1133BD0FB689B78181C074B9847E9E7181CBD46FF
S1133BE004B080BDA93A0000986F00209C6F0020AB
S1133BF04D3A0000A977000080B584B000AF0A1CDC
S1133C00FB1D011C1970BB1D1A70FB1D1A78BB1D0E
S1133C101B78101C191C204B9847031C012253408D
S1133C20DBB2002B01D0002331E01C4B1B68FB608E
S1133C30FB68181C05211A4B9847031CFB60FB68A2
S1133C40002B0CD1C046174B1B685A68FB1D1B7810
S1133C509B00D3181B681B689847031C17E0FB687C
S1133C609978FB68DA78FB6818795B791B0203435F
S1133C709BB2081C111C1A1C0B4B9847031C0122F5
S1133C805340DBB2002B01D0002300E0D0E7181C26
S1133C90BD4604B080BDC046A93A00009C6F002018
S1133CA04D3A0000986F00203978000080B500AFCD
S1133CB0014B9847BD4680BDDD87000080B582B0CA
S1133CC000AF164B1B78002B15D0FB1D00221A7079
S1133CD009E0FB1D1B78181C114B9847FB1D1A7833
S1133CE0FB1D01321A700F4B1B681B681B79FA1DF0
S1133CF012789A42EDD3094B00221A700A4B1A88A3
S1133D00022313409BB2002B01D0084B9847064B6B
S1133D1001221A80BD4602B080BDC046946F0020C7
S1133D204D3B0000986F00208C6F002055A90000C7
S1133D3080B582B000AF164B1B78002B25D0FB1D3D
S1133D4000221A7019E0134B1B685A68FB1D1B787C
S1133D509B00D3181B681B69002B09D00D4B1B68F3
S1133D605A68FB1D1B789B00D3181B681B69984776
S1133D70FB1D1A78FB1D01321A70064B1B681B6869
S1133D801B79FA1D12789A42DDD3BD4602B080BD7C
S1133D90946F0020986F002080B500AF074BDB883C
S1133DA0022B01D0002305E0054B181C0221054B12
S1133DB098470123181CBD4680BDC04630730020BF
S1133DC08C6F0020297F000080B500AF0C4BDB888E
S1133DD0022B01D000230FE0094B9B88DBB2181C97
S1133DE0084B9847031C1A1C074B1A80064B181CD7
S1133DF00221064B98470123181CBD4680BDC046CE
S1133E0030730020DD790000A06F0020297F0000BE
S1133E1080B500AF0C4BDB88002B01D000230FE0F2
S1133E20094B5B88012B0AD1084B1B880222934360
S1133E309AB2064B1A80064B9847012300E00023F0
S1133E40181CBD4680BDC046307300208C6F002016
S1133E5055A9000080B500AF0A4BDB88002B01D0C8
S1133E6000230CE0074B5B88002B07D1054B9B8894
S1133E70DBB2181C044B9847031C00E00023181CF9
S1133E80BD4680BD30730020617A000080B500AF6C
S1133E900C4BDB88002B01D0002310E0094B5B881E
S1133EA0012B02D0C046002309E0074B1B880222E5
S1133EB013439AB2044B1A80044B98470123181CED
S1133EC0BD4680BD307300208C6F002045A90000E2
S1133ED080B500AF0D4BDB88002B01D0002312E02E
S1133EE00A4B5B88002B0DD1084B9B88DBB2181C56
S1133EF0074B9847054B9B88DBB2181C054B98472A
S1133F00031C00E00023181CBD4680BD3073002054
S1133F10F5760000097A000080B500AF054B5B8898
S1133F20DAB27F231340DBB2181C034B9847BD461B
S1133F3080BDC04630730020957E000080B500AF80
S1133F40064BDB88002B01D0002303E0034B044A1B
S1133F501A610123181CBD4680BDC0463073002081
S1133F60193F000080B584B000AFFB1D00221A7019
S1133F70344B5B881A1CFF231340012B0ED002DC48
S1133F80002B05D01EE0022B0ED0032B12D019E01B
S1133F902D4B181C04212D4B98471BE0FB1D0A22B6
S1133FA01A702B4BBB6015E0FB1D20221A70294BA5
S1133FB0BB600FE0FB1D0C221A70274B9847031CB3
S1133FC0BB6007E0254B9847031C002B00D001E0A1
S1133FD0002333E0FB1D1B78002B2ED03B1C0F333A
S1133FE000221A7013E03B1C0F331B783A1C0F326B
S1133FF01278B9688A18127819495B00CB185A806C
S11340003B1C0F331A783B1C0F3301321A703A1CD5
S11340100F32FB1D12781B789A42E4D3FB1D1B78E8
S11340200133DBB2DB18DAB20D4B1A700C4B1B7880
S11340300B4A101C191C054B98470123181CBD463C
S113404004B080BD3073002010020020297F0000DE
S11340501402002020020020013A000065A900009B
S11340604402002080B582B000AF394B5A88FB1D52
S11340701A70374B5B881B0A9BB2DBB2022B12D03F
S113408002DC012B05D052E0032B45D00F2B2FD09F
S11340904DE0304B1A682F4B1B681B78101C191C01
S11340A02D4B984745E02B4B1B685B7CFA1D12781F
S11340B09A4201D3002347E0264B5A68FB1D1B7824
S11340C0DB00D3181A68234B5968FB1D1B78DB00EF
S11340D0CB181B689978DB781B020B439BB2101C2E
S11340E0191C1D4B98471A4B9B6802225A7020E0FA
S11340F0184B9B68002B01D1002325E0154B9A68CF
S1134100144B9B689978DB781B020B439BB2101C01
S1134110191C114B98470CE0104B9847031C0122C3
S11341205340DBB2002B01D000230DE001E000235B
S11341300AE0074BDA88064B9B899A4203D2044B68
S1134140DA88034B9A810123181CBD4602B080BD56
S11341503073002020010020297F0000653F00000B
S113416080B500AF074BDB88012B01D0002305E0AD
S1134170054B181C0121054B98470123181CBD460B
S113418080BDC04630730020946F0020297F00005A
S113419080B582B000AF2A4BDB88002B01D000230E
S11341A049E0284B9847031C002B01D1002342E02F
S11341B0234B5B881A1CFF231A40234B1B685B7C30
S11341C09A4201DD002336E0204B98471C4B5B8864
S11341D0DAB21F4B1A701E4B1B78002B01D101233E
S11341E029E0194B5A681A4B1B781A495B18DB00F3
S11341F0D218194B1A60FB1D00221A7012E0FB1D25
S11342001B78181C0021154B9847031C01225340AE
S1134210DBB2002B01D000230DE0FB1D1A78FB1D3F
S113422001321A700C4B1B681B681B79FA1D12783B
S11342309A42E4D30123181CBD4602B080BDC04697
S113424030730020BD7E000020010020BD3C000032
S1134250946F0020FFFFFF1F986F0020F93B0000C0
S113426080B582B000AF214BDB88012B01D0002345
S113427037E01F4B1B78002B01D1002331E01B4B8F
S11342809A88FB1D1A701B4B1B681B681B79FA1D4F
S113429012789A4201D3002323E0FB1D1B78181CDB
S11342A00021154B9847031C01225340DBB2002B1D
S11342B001D0002315E00F4B1B685A68FB1D1B78C7
S11342C09B00D3181B683B603B68DB689847031C62
S11342D01A1C0A4B1A70094B181C0121084B9847E9
S11342E00123181CBD4602B080BDC04630730020B7
S11342F0946F0020986F0020A93A0000906F00206E
S1134300297F000080B582B000AF174BDB88002BFB
S113431001D0002323E0154B1B78002B01D100238F
S11343201DE0114B9A88FB1D1A700F4B5A88BB1D58
S11343301A70FB1D1B78181C0D4B9847031C012297
S11343405340DBB2002B01D0002308E0FB1D1A7898
S1134350BB1D1B78101C191C064B9847031C181C0A
S1134360BD4602B080BDC04630730020946F00206B
S11343704D3B0000F93B000080B500AF484B1B7873
S1134380DBB25BB2002B41DA454BDB88002B01D159
S1134390002382E0424B1B781A1C1F23134014D1C4
S11343A03F4B5B78062B08D0082B0AD0002B00D09B
S11343B00BE03C4B9847031C6FE03B4B9847031CB6
S11343C06BE03A4B9847031C67E0354B1B781A1C8B
S11343D01F231340012B08D1314B5B780A2B00D0EB
S11343E003E0334B9847031C57E02D4B1B781A1CF2
S11343F01F231340022B4FD1294B5B78002B01D094
S1134400C04649E02B4B9847031C46E0244B1B78DD
S11344101A1C1F23134019D1214B5B78092B14D884
S11344209A00254BD3181B689F46244B9847031CBE
S113443033E0234B9847031C2FE0224B9847031C7F
S11344402BE0214B9847031C27E0C046144B1B78F4
S11344501A1C1F231340012B08D1114B5B780B2B23
S113446000D003E0194B9847031C16E00C4B1B7853
S11344701A1C1F231340022B0ED1094B5B78012B0E
S113448002D0032B04D007E0114B9847031C04E02F
S1134490104B9847031C00E00023181CBD4680BD48
S11344A030730020993D0000654000006141000028
S11344B061420000C93D000000B500003D3F00001E
S11344C0113E00008D3E00009141000005430000B4
S11344D0553E0000D13E000080B582B000AF224BB3
S11344E01B78002B01D100233AE0204B9A88FB1D56
S11344F01A701F4B1B681B681B79FA1D12789A42AD
S113450001D300232CE0FB1D1B78181C0021194B40
S11345109847031C01225340DBB2002B01D0002337
S11345201EE0134B1B685A68FB1D1B789B00D318B5
S11345301B683B603B68DB689847031CFA1D1278D4
S1134540101C191C0B4B9847031C01225340DBB26F
S1134550002B01D0002303E03B689B689847031CB1
S1134560181CBD4602B080BD946F0020307300203B
S1134570986F0020A93A000080B582B000AF214BAB
S11345801B78002B01D1002338E01F4B9A88FB1DB8
S11345901A70FB1D00221A7027E01C4B1B685A6816
S11345A0FB1D1B789B00D3181B683B603B68DB68D2
S11345B09847031CFA1D1278101C191C144B9847B9
S11345C0031C01225340DBB2002B01D0002315E071
S11345D03B689B689847031C002B01D001230DE026
S11345E0FB1D1A78FB1D01321A70084B1B681B68EF
S11345F01B79FA1D12789A42CFD30023181CBD46AA
S113460002B080BD946F002030730020986F0020AA
S1134610A93A000080B500AF204B00229A811F4BBD
S113462000221A611D4B00225A611C4B1B78DBB21D
S11346305BB2002B05DA194BDB88002B01D1002378
S113464029E0164B1B781A1C6023134006D1144B27
S11346509847031C002B01D001231CE00F4B1B784F
S11346601A1C1F231340012B06D10E4B9847031C21
S1134670002B01D001230EE0084B1B781A1C1F23CA
S11346801340022B06D1084B9847031C002B01D082
S1134690012300E00023181CBD4680BD30730020B8
S11346A079430000D94400007945000080B582B008
S11346B000AF0F4B1B68002B12D1EFF310837B600C
S11346C07B68002B09D172B6BFF35F8F094B0022C0
S11346D01A70094B01221A7002E0074B00221A706B
S11346E0034B1B685A1C024B1A60BD4602B080BDC6
S11346F0A46F002088020020A86F002080B500AFBE
S11347000A4B1B685A1E094B1A60084B1B68002B86
S11347100AD1074B1B78DBB2002B05D0054B0122D5
S11347201A70BFF35F8F62B6BD4680BDA46F0020D0
S1134730A86F00208802002080B584B000AF021C5E
S1134740FB1D1A703B1C0F33FA1D1278D2091A7024
S11347503B1C0E33FA1D127852091A700D4BBB60C4
S11347603B1C0F331B78002B0ED13B1C0F331B78E3
S11347709B001022D219D318083B1A683B1C0E3335
S11347801B78DB01D31800E00023181CBD4604B0DD
S113479080BDC0460044004180B582B000AF021C19
S11347A0FB1D1A70FB1D1B78181C034B9847031C38
S11347B0181CBD4602B080BD3947000080B582B0E8
S11347C000AF78607B6800221A707B6801225A70FF
S11347D07B6800229A70BD4602B080BD80B584B06B
S11347E000AF0A1CFB1D011C1970BB1D1A70FB1DB8
S11347F01B78181C0D4B9847031CFB60FB1D1A7893
S11348001F2313400122111C99400B1CBB60BB1DCC
S11348101B78002B03D0FB68BA689A6102E0FB683E
S1134820BA685A61BD4604B080BDC04699470000CD
S113483080B582B000AF3B1D181C0E4B98473B1D42
S113484001221A703B1D3E20191C0B4B98473E2039
S113485001210A4B98473B1D00221A703B1D01227F
S11348605A703B1D0F20191C034B9847BD4602B0DC
S113487080BDC046BD470000914E0000DD470000EA
S113488080B584B000AF021CFB1D1A703B1C0F33B3
S1134890FA1D127852091A703B1C0F331B78002B37
S11348A00BD1084BBB603B1C0F331B789B001022C1
S11348B0D219D318083B1B6800E00023181CBD461E
S11348C004B080BD0018004080B584B000AF021C65
S11348D0FB1D1A70FB1D1B78181C0C4B9847031CFE
S11348E0FB60FB1D1A781F2313400122111C994001
S11348F00B1CBB60FB681B69BA6813405A1E9341CA
S1134900DBB2181CBD4604B080BDC046814800001F
S113491080B584B000AF021CFB1D1A70FB1D1B7810
S1134920181C094B9847031CFB60FB1D1A781F23B6
S113493013400122111C99400B1CBB60FB68BA6830
S11349401A61BD4604B080BD8148000080B582B0C4
S113495000AF7860FB1C1970BB1C1A70BB1C1B7861
S1134960002B01D0172319E0FB1C1A780D4B920081
S1134970D358002B07D1FB1C1A780A4B9200796894
S1134980D15000230AE0FB1C1A78064B9200D2583F
S11349907B689A4201D1002300E01D23181CBD4608
S11349A002B080BD3871002080B584B000AF0A1C0D
S11349B0FB1D011C1970BB1D1A70BB1D1B78002B3D
S11349C00ED1FB1D1B78181C084B9847031CFB6079
S11349D0FB1D1B7801229A40FB68DA60002300E08B
S11349E01723181CBD4604B080BDC0468148000092
S11349F080B584B000AF0A1CFB1D011C1970BB1DDF
S1134A001A70BB1D1B78002B0ED1FB1D1B78181CC4
S1134A10084B9847031CFB60FB1D1B7801229A403E
S1134A20FB689A60002300E01723181CBD4604B0FD
S1134A3080BDC0468148000080B500AF154B002200
S1134A401A7021E0134B1B78181C134B9847031C56
S1134A50002B13D00F4B1B78181C104B98470D4B91
S1134A601B781A1C0E4B9200D358002B06D0094B0E
S1134A701B781A1C0A4B9200D3589847054B1B7895
S1134A800133DAB2034B1A70024B1B780F2BD9D9BE
S1134A90BD4680BD36710020C948000011490000A0
S1134AA03871002080B582B000AF78607B68002246
S1134AB01A70BD4602B080BD80B582B000AF021C42
S1134AC03960FB1D1A70FB1D1B78012B0AD0022BC9
S1134AD00FD0002B14D10E4B0D4A91693A680A434A
S1134AE09A610FE00A4B0A4AD1693A680A43DA61CB
S1134AF008E0074B064A116A3A680A431A6201E061
S1134B00172300E00023181CBD4602B080BDC04638
S1134B100004004080B582B000AF78607B688022DA
S1134B201A707B6800225A707B6801229A707B6835
S1134B300022DA70BD4602B080BDC04680B582B0A6
S1134B4000AF021CFB1D1A70064BFA1D1278111CD3
S1134B501F220A400121081C9040021C1A60BD4615
S1134B6002B080BD00E100E080B584B000AF021C5B
S1134B70FB1D1A703B1C0F33FA1D127852091A7070
S1134B803B1C0F331B78002B0BD1084BBB603B1C29
S1134B900F331B789B001022D219D318083B1B68D3
S1134BA000E00023181CBD4604B080BD001800407E
S1134BB080B582B000AF0F4B3B6000237B6011E0F7
S1134BC07B689B000822D219D318083B1B685B78CA
S1134BD0DBB2DBB25BB2002B01DA012306E07B68B7
S1134BE001337B607B68002BEAD00023181CBD4690
S1134BF002B080BD0018004080B584B000AF2C4BDB
S1134C007B60002040212B4B98473B1C181C2A4BEF
S1134C1098473B1C00221A703B1C0520191C274B8B
S1134C2098470520264B98470023FB6016E0FB6855
S1134C309B001021C919CB180C3B1A68FB689B0018
S1134C401021C919CB180C3B1B681B78DBB201215E
S1134C500B43DBB21370FB680133FB60FB68002B72
S1134C60E5D0C046174B9847031C002BFAD13B1CD8
S1134C700B3300221A700DE03B1C0B331A78124BD5
S1134C8092000021D1503B1C0B331A783B1C0B3390
S1134C9001321A703B1C0B331B780F2BECD9042008
S1134CA00A4B98470A4B9847BD4604B080BDC0469E
S1134CB000180040B94A0000A54A0000DD6B00005E
S1134CC01D6C0000B14B0000387100203D4B00000A
S1134CD0D54C000080B582B000AF144B3B6000237C
S1134CE07B6016E07B689B000821C919CB18083B40
S1134CF01A687B689B000821C919CB18083B1B68FC
S1134D001B78DBB202210B43DBB213707B680133E7
S1134D107B607B68002BE5D0C046054B9847031C9D
S1134D20002BFAD1BD4602B080BDC0460018004039
S1134D30B14B000080B582B000AF78607B68002280
S1134D401A607B6800225A607B6801221A727B68B1
S1134D5001225A727B6800229A727B680222DA72FC
S1134D60BD4602B080BDC04690B587B000AF021CFE
S1134D703960FB1D1A703B1C0833181C374B9847CD
S1134D803B685B68DAB23B1C08331A703B1C08337F
S1134D9000225A703B681A7A3B1C08339A703B68AD
S1134DA01B68DAB23B1C0833101C191C2C4B9847A7
S1134DB0FB1D1B78181C2B4B9847031C3B61FB1DE8
S1134DC01A78072313409B00FB603B68DB7A7B6106
S1134DD03B689B7A002B03D07B69082213437B61D9
S1134DE0FB1D1B78DB08DBB21A1CFB1D1B78DB08E0
S1134DF0DBB2191C3B6906318900CB58F9680F20D6
S1134E00041C8C40211CC9431940FB687869041CAC
S1134E109C40231C19433B6906329200D1503B68E5
S1134E205B7A002B0BD03B695A69FB1D1B7801216F
S1134E30081C9840031C1A433B695A610BE03B6908
S1134E405B69FA1D127801210C1C9440221CD24388
S1134E501A403B695A61BD4607B090BD154B00002E
S1134E60C16E0000694B000080B582B000AF78606D
S1134E707B6880221A707B6800225A707B6801224A
S1134E809A707B680022DA70BD4602B080BDC046CD
S1134E9080B584B000AF021C3960FB1D1A703B1C46
S1134EA00C33181C0F4B98473B1C0C3380221A7090
S1134EB03B681A783B1C0C335A703B685A783B1C8D
S1134EC00C339A703B689A783B1C0C33DA70FB1DE8
S1134ED01A783B1C0C33101C191C034B9847BD4615
S1134EE004B080BD694E0000C16E000080B582B080
S1134EF000AF78607B6800221A70BD4602B080BDA6
S1134F00B0B58EB000AF38617961BA60FB60002241
S1134F100023BA62FB62002200233A627B623F23D1
S1134F207B635BE07B6B203B002B05DB0122101CC9
S1134F309840031CFB610DE07B6B2022D31A0122F5
S1134F40111CD9400B1C00217A6B081C9040021CD8
S1134F501343FB6101227B6B111C99400B1CBB6149
S1134F603A6A7B6A92185B413A627B623B69BA692E
S1134F70141C1C407B69FA69151C1D40231C2B431F
S1134F8007D03B6A012213433B627B6A002213432E
S1134F907B62FA687B6A9A421DD8FA687B6A9A42F5
S1134FA003D1BA683B6A9A4215D83A6A7B6A3A6076
S1134FB07B60BA68FB6838687968801A9941021C7A
S1134FC00B1C3A627B62BA6ABB691343BB62FA6A1E
S1134FD0FB691343FB627B6B013B7B637B6B002BA5
S1134FE0A0DABB6AFC6A181C211CBD460EB0B0BD19
S1134FF080B586B000AFF860B9607A603B1C1633A8
S113500000221A80BB683B61BB685A08FB689A425D
S113501001D2402326E0BB685B083B610AE03A69A1
S1135020FB68D31A3B613B1C16331A883B1C1633AE
S113503001321A803A69FB689A42F0D23B1C16335B
S11350403A1C16321288013A1A803B1C16331B880C
S1135050FF2B01D9402305E07B683A1C16321288E5
S11350601A800023181CBD4606B080BD0000000055
S1135070F0B59DB000AFF863B9637A633A1C33327C
S1135080137000230024BB65FC65002300243B65EA
S11350907C6500230024BB66FC6600233B663B1C46
S11350A088331A78FB6B5A43BB6B9A4201D940236D
S11350B0AFE03B1C33331B78002B43D13B1C8833BC
S11350C01B78DBB2BB620023FB62FB6B3B620023F9
S11350D07B62554CB86AF96A3A6A7B6AA047031C3A
S11350E00C1C1B00FB640023BB64BB6BBB61002373
S11350F0FB61BB6CFC6C181C211CBA69FB694B4C32
S1135100A047031C0C1CBB65FC65464A4449BB6DA7
S1135110FC6D0D1C161CED1AA6412B1C341C3B65A2
S11351207C653B6D1B0C7A6D12047A617E691E43AB
S11351307E613B6D1B043B617A691300BB660023EF
S1135140FB6660E03B1C33331B78012B5BD13B1CBB
S1135150673300221A7040E0BB6B1D1C00231E1C29
S11351606B0FF2001343FB64EB00BB64FB6BBB608F
S11351700023FB603B1C88331B78DBB23B600023BD
S11351807B60294CB868F9683A687B68A047031CBF
S11351900C1C3B647C64B96CFA6C3B6C7C6C081C26
S11351A0111C1A1C231C214CA047031C0C1C3B661D
S11351B03B1C67331B783A6ED31A3B663B6EDB08A5
S11351C03B663A6E1A4B9A4200D80BE03B1C67339D
S11351D01A783B1C673301321A703B1C67331B7807
S11351E0072BB9D93B1C67331B78082B01D140230B
S11351F00FE03B1C67331B785B031A1C3B6E1343A5
S1135200BB660023FB66BB6EFC6E9AB27B6B1A8096
S11352100023181CBD461DB0F0BDC046C046C046A4
S1135220000000000100000095B20000014F0000E2
S1135230FF1F0000C046C04680B584B000AF0A1C02
S1135240FB1D011C1970BB1D1A701A4B1B7801221F
S11352505340DBB2002B03D1BB1D1B78002B1BD0AA
S11352603B1C0C33181C144B98473B1C0C33FA1D85
S113527012781A703B1C0C331320191C0F4B9847DF
S113528013200F4B98470B4BFA1D12785A70094B99
S113529001221A70002308E0064B5B78FA1D12788D
S11352A09A4201D1002300E01D23181CBD4604B01E
S11352B080BDC046AC6F0020ED4E0000DD6B0000E9
S11352C01D6C000080B582B000AF78600A1CFB1C26
S11352D01A707B684D4A93423FD04C4A934206D899
S11352E04B4A93420FD04B4A934221D089E04A4A19
S11352F0934200D15BE0494A934200D16CE0484AB2
S113530093423FD07DE0FB1C1B78012B0AD002DCCA
S1135310002B05D075E0022B06D0032B06D070E0DD
S1135320404B6FE0404B6DE0404B6BE0404B69E01D
S1135330FB1C1B78012B0AD002DC002B05D060E09B
S1135340022B06D0032B06D05BE003235AE0394B33
S113535058E0394B56E0394B54E0FB1C1B78012BC9
S11353600AD002DC002B05D04BE0022B06D0032B25
S113537006D046E0324B45E0324B43E0324B41E04D
S1135380324B3FE0FB1C1B78012B0AD002DC002BC4
S113539005D036E0022B06D0032B06D031E02C4B8F
S11353A030E02C4B2EE02C4B2CE02C4B2AE0FB1C49
S11353B01B78012B0AD002DC002B05D021E0022B44
S11353C006D0032B06D01CE0254B1BE0254B19E02F
S11353D0254B17E0254B15E0FB1C1B78012B0AD04D
S11353E002DC002B05D00CE0022B06D0032B06D0E8
S11353F007E01F4B06E01F4B04E01F4B02E01F4B6E
S113540000E00023181CBD4602B080BD001000421D
S113541000080042000C004200180042001C004238
S1135420001400420300040003000500030006000A
S1135430030007000300010003001E0003001F0017
S1135440030008000300090003000A0003000B0026
S113545003001000030011000300120003001300F6
S113546003000C0003000D0003000E0003000F00F6
S113547003001600030017000300180003001900BE
S113548090B58BB000AF78603B1C0C330E4A13CA46
S113549013C313CA13C300237B620DE07A683B1C59
S11354A00C33796A8900CB589A4202D17B6ADBB209
S11354B006E07B6A01337B627B6A052BEED900230D
S11354C0181CBD460BB090BD28B5000080B582B055
S11354D000AF021CFB1D1A70BD4602B080BDC04661
S11354E080B584B000AF021C3960FB1D1A70134BE9
S11354F01B7801225340DBB2002B15D00023FB6044
S11355000CE00F4BFA6892000E49D1500E4BFA682A
S113551092000021D150FB680133FB60FB68052B2E
S1135520EFD9064B01221A70FB1D1A78044B920026
S11355303968D150BD4604B080BDC046B06F00206C
S1135540B46F0020CD5400007871002090B585B070
S113555000AF78603A1C08320E4B111C1A1C06234B
S1135560081C111C1A1C0C4B98473C1C0F347B68FC
S1135570181C0A4B9847031C23703B1C0F331B78E1
S11355803A1C0832D35CDBB25BB2181CBD4605B0D2
S113559090BDC04640B5000025B300008154000012
S11355A080B500AF024B1B6800209847BD4680BD04
S11355B0B46F002080B500AF024B5B6801209847B0
S11355C0BD4680BDB46F002080B500AF024B9B6820
S11355D002209847BD4680BDB46F002080B500AF5F
S11355E0024BDB6803209847BD4680BDB46F0020A2
S11355F080B500AF024B1B6904209847BD4680BDAF
S1135600B46F002080B500AF024B5B69052098475A
S1135610BD4680BDB46F002080B582B000AF786015
S11356207B6800221A70BD4602B080BD80B582B08E
S113563000AF021C3960FB1D1A70FB1D1B78012B87
S11356400AD0022B0FD0002B14D10E4B0D4A9169B6
S11356503A680A439A610FE00A4B0A4AD1693A68E8
S11356600A43DA6108E0074B064A116A3A680A43BA
S11356701A6201E0172300E00023181CBD4602B0A3
S113568080BDC0460004004080B582B000AF7860A1
S11356907B6880221A707B6800225A707B68012222
S11356A09A707B680022DA70BD4602B080BDC046A5
S11356B080B500AF054B9B78DBB21A1C0223134064
S11356C05A1E9341DBB2181CBD4680BD0020004128
S11356D080B584B000AF78607B681B68FB60FB68B2
S11356E0DB695A1E9341DBB2181CBD4604B080BD71
S11356F080B582B000AF7860C0467B68181C044B4C
S11357009847031C002BF8D1BD4602B080BDC046AB
S1135710D1560000B0B58CB002AF786039607B68B8
S11357201B68BB617B681B68181CAD4B9847031C46
S11357307B617B6914333B6100237B6200233B6202
S11357403B1C0E3300221A803B1C1F3300221A70AC
S11357503B1C1E3310221A703B681B8A8022D20124
S113576093421CD08022D201934206DC002B0DD040
S113577080229201934224D035E0C022D201934288
S113578028D080221202934212D02CE03B1C1F33FB
S113579000221A703B1C1E3310221A7023E03B1C9B
S11357A01F3300221A703B1C1E3308221A701AE0A1
S11357B03B1C1F3300221A703B1C1E3303221A7039
S11357C011E03B1C1F3301221A703B1C1E331022B4
S11357D01A7008E03B1C1F3301221A703B1C1E3355
S11357E008221A70C0463B681A683B68DB681A4393
S11357F03B685B691A433B681B8A1A433B681B7E00
S11358001B021A4339682623CB5C5B0713437B6274
S11358103B1C1D3300221A703B685B68002B20D0B0
S11358208022520593424ED13A682723D35C012249
S11358305340DBB2002B13D03B681D6A3B69DBB2DB
S1135840181C684B9847021C3C1C1D343B1C0E332F
S1135850281C111C1A1C644B9847031C237032E04B
S113586031E03A682723D35C002B13D03B68186AD5
S11358703B68996A3C1C1D343A1C0E323B1C1F3396
S11358801B783D1C1E352D780095584DA847031CE8
S1135890237017E03B681D6A3B69DBB2181C514B4F
S11358A09847011C3C1C1D343A1C0E323B1C1F3310
S11358B01B78381C1E3000780090281C4B4DA847DC
S11358C0031C2370C0463B1C1D331B78002B03D0E4
S11358D03B1C1D331B787EE03B685B7E002B03D0B2
S11358E03B689A7EBB699A737B68181C404B984747
S11358F03B1C0E331A88BB699A813B685B687A6AE1
S113590013437B623A682723D35C01225340DBB202
S1135910002B03D07B6A042213437B623B689A7A90
S11359203B68DB7A1343DBB21A1C3B685B7E9B0249
S11359301A433B681B7F5B021A433B685B7F1B0275
S11359401A4339682423CB5C5B041A433968252342
S1135950CB5C1B0413433B623B681B89FF2B14D0B5
S11359603B68DB7E002B05D07B6AA022D204134364
S11359707B6204E07B6A8022520413437B623B68AF
S11359801B893A6A13433B6208E03B68DB7E002BC9
S113599004D07B6A8022D20413437B623A682C23AE
S11359A0D35C002B04D1134B9847031C002B03D06A
S11359B07B6A802213437B627B68181C0C4B9847DC
S11359C0BB693A6A5A607B68181C094B9847BB69E3
S11359D07A6A1A600023181CBD460AB0B0BDC046DE
S11359E081540000F96C0000F14F00007150000078
S11359F0F1560000B156000090B593B000AFF860C6
S1135A00B9607A603B1C3B3300221A70FB68BA68A9
S1135A101A60FB681B687B63FB681B68181C864B59
S1135A209847031C3B633B6B0233FB623B6B1433B1
S1135A30BB627B6B1A680123134001D00523F6E097
S1135A407B6B1A680223134001D01C23EFE0FB6A2E
S1135A500122111C99400B1C0220191C774B9847FA
S1135A603B1C2433181C764B98477A682D23D25C50
S1135A703B1C24331A70BB6ADAB23B1C2433101C5F
S1135A80191C704B9847BB6ADBB2181C6E4B9847C5
S1135A907A682D23D35C181C00216C4B98477B68D3
S1135AA0DA7AFB685A717A682423D25CFB689A71AB
S1135AB07A682523D25CFB68DA717B68DA7EFB683E
S1135AC01A727B681A7FFB685A723C1C3B34FA6872
S1135AD07B68101C191C5E4B9847031C23703B1CED
S1135AE03B331B78002B03D03B1C3B331B789EE0DD
S1135AF03B1C2033181C574B98473B1C2033002277
S1135B005A703B1C203300229A707B681A6B3B1C32
S1135B1010331A607B685A6B3B1C10335A607B68E5
S1135B209A6B3B1C10339A607B68DA6B3B1C103316
S1135B30DA603B1C473300221A702CE03B1C4733CD
S1135B401A783B1C10339200D3583B643B6C002BF7
S1135B5009D1BA683B1C47331B78101C191C3E4BF7
S1135B609847031C3B643B6C01330DD03B6CDAB2A9
S1135B703B1C20331A703B6C1B0CDAB23B1C2033E9
S1135B80101C191C354B98473B1C47331A783B1C97
S1135B90473301321A703B1C47331B78032BCDD992
S1135BA00023FB6309E0FA68FB6B02339B00D31804
S1135BB000225A60FB6B0133FB63FB6B052BF2D9AC
S1135BC0FB6800229A62FB6800225A62FB6800228A
S1135BD0DA85FB6800229A85FA6830230021D154C3
S1135BE0FA6831230021D154FA6832230021D154B8
S1135BF0FA6833230021D154FB681B683C1C27340A
S1135C00181C0D4B9847031C23703B1C27331A7830
S1135C10134B101C191C134B98473B1C27331A7841
S1135C20114B9200F968D1503B1C3B331B78181C74
S1135C30BD4613B090BDC046815400002D560000EF
S1135C4019560000DD6B00001D6C00003952000085
S1135C501557000089560000C5520000C16E0000AF
S1135C60855E0000E15400007871002080B500AF2B
S1135C70014B9847BD4680BDAD46000080B500AFDE
S1135C80014B9847BD4680BDFD46000080B584B0F9
S1135C9000AF78607B681B68FB60FB68DB695A1E99
S1135CA09341DBB2181CBD4604B080BD80B582B000
S1135CB000AF7860C0467B68181C044B9847031CEF
S1135CC0002BF8D1BD4602B080BDC0468D5C0000FB
S1135CD080B586B000AFF860B960BB1D1A80FB6860
S1135CE01B687B610F4B9847FB68DB8D9BB2002BD5
